{"contracts/ProcurementLog.sol":{"ProcurementLog":{"abi":[{"inputs":[],"stateMutability":"nonpayable","type":"constructor"},{"inputs":[],"name":"AccessControlBadConfirmation","type":"error"},{"inputs":[{"internalType":"address","name":"account","type":"address"},{"internalType":"bytes32","name":"neededRole","type":"bytes32"}],"name":"AccessControlUnauthorizedAccount","type":"error"},{"inputs":[],"name":"EnforcedPause","type":"error"},{"inputs":[],"name":"ExpectedPause","type":"error"},{"anonymous":false,"inputs":[{"indexed":false,"internalType":"string","name":"bidId","type":"string"},{"indexed":false,"internalType":"string","name":"rfpId","type":"string"},{"indexed":false,"internalType":"uint256","name":"evaluationScore","type":"uint256"},{"indexed":false,"internalType":"uint256","name":"evaluationDate","type":"uint256"},{"indexed":false,"internalType":"bytes32","name":"evaluationHash","type":"bytes32"}],"name":"BidEvaluated","type":"event"},{"anonymous":false,"inputs":[{"components":[{"internalType":"string","name":"bidId","type":"string"},{"internalType":"string","name":"rfpId","type":"string"},{"internalType":"string","name":"vendorId","type":"string"},{"internalType":"uint256","name":"submissionDate","type":"uint256"},{"internalType":"bytes32","name":"proposalHash","type":"bytes32"}],"indexed":false,"internalType":"struct ProcurementLog.BidData","name":"data","type":"tuple"}],"name":"BidSubmitted","type":"event"},{"anonymous":false,"inputs":[{"components":[{"internalType":"string","name":"contractId","type":"string"},{"internalType":"string","name":"rfpId","type":"string"},{"internalType":"string","name":"vendorId","type":"string"},{"internalType":"string","name":"bidId","type":"string"},{"internalType":"uint256","name":"awardDate","type":"uint256"},{"internalType":"uint256","name":"totalValue","type":"uint256"},{"internalType":"uint256","name":"startDate","type":"uint256"},{"internalType":"uint256","name":"endDate","type":"uint256"}],"indexed":false,"internalType":"struct ProcurementLog.ContractData","name":"data","type":"tuple"}],"name":"ContractAwarded","type":"event"},{"anonymous":false,"inputs":[{"components":[{"internalType":"string","name":"milestoneId","type":"string"},{"internalType":"string","name":"contractId","type":"string"},{"internalType":"string","name":"title","type":"string"},{"internalType":"uint256","name":"dueDate","type":"uint256"},{"internalType":"string","name":"status","type":"string"},{"internalType":"string","name":"updatedBy","type":"string"},{"internalType":"bytes32","name":"detailsHash","type":"bytes32"}],"indexed":false,"internalType":"struct ProcurementLog.MilestoneData","name":"data","type":"tuple"}],"name":"MilestoneCreated","type":"event"},{"anonymous":false,"inputs":[{"components":[{"internalType":"string","name":"milestoneId","type":"string"},{"internalType":"string","name":"contractId","type":"string"},{"internalType":"string","name":"title","type":"string"},{"internalType":"uint256","name":"dueDate","type":"uint256"},{"internalType":"string","name":"status","type":"string"},{"internalType":"string","name":"updatedBy","type":"string"},{"internalType":"bytes32","name":"detailsHash","type":"bytes32"}],"indexed":false,"internalType":"struct ProcurementLog.MilestoneData","name":"data","type":"tuple"}],"name":"MilestoneUpdated","type":"event"},{"anonymous":false,"inputs":[{"indexed":false,"internalType":"address","name":"account","type":"address"}],"name":"Paused","type":"event"},{"anonymous":false,"inputs":[{"components":[{"internalType":"string","name":"rfpId","type":"string"},{"internalType":"string","name":"title","type":"string"},{"internalType":"uint256","name":"budget","type":"uint256"},{"internalType":"uint256","name":"submissionDeadline","type":"uint256"},{"internalType":"string","name":"createdBy","type":"string"}],"indexed":false,"internalType":"struct ProcurementLog.RfpData","name":"data","type":"tuple"}],"name":"RfpCreated","type":"event"},{"anonymous":false,"inputs":[{"indexed":false,"internalType":"string","name":"rfpId","type":"string"},{"indexed":false,"internalType":"uint256","name":"publishDate","type":"uint256"},{"indexed":false,"internalType":"uint256","name":"numberOfBidsAllowed","type":"uint256"}],"name":"RfpPublished","type":"event"},{"anonymous":false,"inputs":[{"indexed":true,"internalType":"bytes32","name":"role","type":"bytes32"},{"indexed":true,"internalType":"bytes32","name":"previousAdminRole","type":"bytes32"},{"indexed":true,"internalType":"bytes32","name":"newAdminRole","type":"bytes32"}],"name":"RoleAdminChanged","type":"event"},{"anonymous":false,"inputs":[{"indexed":true,"internalType":"bytes32","name":"role","type":"bytes32"},{"indexed":true,"internalType":"address","name":"account","type":"address"},{"indexed":true,"internalType":"address","name":"sender","type":"address"}],"name":"RoleGranted","type":"event"},{"anonymous":false,"inputs":[{"indexed":true,"internalType":"bytes32","name":"role","type":"bytes32"},{"indexed":true,"internalType":"address","name":"account","type":"address"},{"indexed":true,"internalType":"address","name":"sender","type":"address"}],"name":"RoleRevoked","type":"event"},{"anonymous":false,"inputs":[{"indexed":false,"internalType":"address","name":"account","type":"address"}],"name":"Unpaused","type":"event"},{"inputs":[],"name":"DEFAULT_ADMIN_ROLE","outputs":[{"internalType":"bytes32","name":"","type":"bytes32"}],"stateMutability":"view","type":"function"},{"inputs":[],"name":"GPO_ROLE","outputs":[{"internalType":"bytes32","name":"","type":"bytes32"}],"stateMutability":"view","type":"function"},{"inputs":[],"name":"VENDOR_ROLE","outputs":[{"internalType":"bytes32","name":"","type":"bytes32"}],"stateMutability":"view","type":"function"},{"inputs":[{"internalType":"address","name":"account","type":"address"}],"name":"addGPO","outputs":[],"stateMutability":"nonpayable","type":"function"},{"inputs":[{"internalType":"address","name":"account","type":"address"}],"name":"addVendor","outputs":[],"stateMutability":"nonpayable","type":"function"},{"inputs":[{"internalType":"bytes32","name":"role","type":"bytes32"}],"name":"getRoleAdmin","outputs":[{"internalType":"bytes32","name":"","type":"bytes32"}],"stateMutability":"view","type":"function"},{"inputs":[{"internalType":"bytes32","name":"role","type":"bytes32"},{"internalType":"address","name":"account","type":"address"}],"name":"grantRole","outputs":[],"stateMutability":"nonpayable","type":"function"},{"inputs":[{"internalType":"bytes32","name":"role","type":"bytes32"},{"internalType":"address","name":"account","type":"address"}],"name":"hasRole","outputs":[{"internalType":"bool","name":"","type":"bool"}],"stateMutability":"view","type":"function"},{"inputs":[{"internalType":"string","name":"bidId","type":"string"},{"internalType":"string","name":"rfpId","type":"string"},{"internalType":"uint256","name":"evaluationScore","type":"uint256"},{"internalType":"bytes32","name":"evaluationHash","type":"bytes32"}],"name":"logBidEvaluation","outputs":[],"stateMutability":"nonpayable","type":"function"},{"inputs":[{"internalType":"string","name":"bidId","type":"string"},{"internalType":"string","name":"rfpId","type":"string"},{"internalType":"string","name":"vendorId","type":"string"},{"internalType":"bytes32","name":"proposalHash","type":"bytes32"}],"name":"logBidSubmission","outputs":[],"stateMutability":"nonpayable","type":"function"},{"inputs":[{"internalType":"string","name":"contractId","type":"string"},{"internalType":"string","name":"rfpId","type":"string"},{"internalType":"string","name":"vendorId","type":"string"},{"internalType":"string","name":"bidId","type":"string"},{"internalType":"uint256","name":"totalValue","type":"uint256"},{"internalType":"uint256","name":"startDate","type":"uint256"},{"internalType":"uint256","name":"endDate","type":"uint256"}],"name":"logContractAward","outputs":[],"stateMutability":"nonpayable","type":"function"},{"inputs":[{"internalType":"string","name":"milestoneId","type":"string"},{"internalType":"string","name":"contractId","type":"string"},{"internalType":"string","name":"title","type":"string"},{"internalType":"uint256","name":"dueDate","type":"uint256"},{"internalType":"string","name":"status","type":"string"},{"internalType":"string","name":"updatedBy","type":"string"},{"internalType":"bytes32","name":"detailsHash","type":"bytes32"}],"name":"logMilestoneCreation","outputs":[],"stateMutability":"nonpayable","type":"function"},{"inputs":[{"internalType":"string","name":"milestoneId","type":"string"},{"internalType":"string","name":"contractId","type":"string"},{"internalType":"string","name":"title","type":"string"},{"internalType":"uint256","name":"dueDate","type":"uint256"},{"internalType":"string","name":"status","type":"string"},{"internalType":"string","name":"updatedBy","type":"string"},{"internalType":"bytes32","name":"detailsHash","type":"bytes32"}],"name":"logMilestoneUpdate","outputs":[],"stateMutability":"nonpayable","type":"function"},{"inputs":[{"internalType":"string","name":"rfpId","type":"string"},{"internalType":"string","name":"title","type":"string"},{"internalType":"uint256","name":"budget","type":"uint256"},{"internalType":"uint256","name":"submissionDeadline","type":"uint256"},{"internalType":"string","name":"createdBy","type":"string"}],"name":"logRfpCreation","outputs":[],"stateMutability":"nonpayable","type":"function"},{"inputs":[{"internalType":"string","name":"rfpId","type":"string"},{"internalType":"uint256","name":"numberOfBidsAllowed","type":"uint256"}],"name":"logRfpPublication","outputs":[],"stateMutability":"nonpayable","type":"function"},{"inputs":[],"name":"pause","outputs":[],"stateMutability":"nonpayable","type":"function"},{"inputs":[],"name":"paused","outputs":[{"internalType":"bool","name":"","type":"bool"}],"stateMutability":"view","type":"function"},{"inputs":[{"internalType":"bytes32","name":"role","type":"bytes32"},{"internalType":"address","name":"callerConfirmation","type":"address"}],"name":"renounceRole","outputs":[],"stateMutability":"nonpayable","type":"function"},{"inputs":[{"internalType":"bytes32","name":"role","type":"bytes32"},{"internalType":"address","name":"account","type":"address"}],"name":"revokeRole","outputs":[],"stateMutability":"nonpayable","type":"function"},{"inputs":[{"internalType":"bytes4","name":"interfaceId","type":"bytes4"}],"name":"supportsInterface","outputs":[{"internalType":"bool","name":"","type":"bool"}],"stateMutability":"view","type":"function"},{"inputs":[],"name":"unpause","outputs":[],"stateMutability":"nonpayable","type":"function"}],"evm":{"bytecode":{"linkReferences":{},"object":"60806040523480156200001157600080fd5b506000600160006101000a81548160ff021916908315150217905550620000426000801b336200004960201b60201c565b50620001be565b60006200005d83836200014c60201b60201c565b6200014157600160008085815260200190815260200160002060000160008473ffffffffffffffffffffffffffffffffffffffff1673ffffffffffffffffffffffffffffffffffffffff16815260200190815260200160002060006101000a81548160ff021916908315150217905550620000dd620001b660201b60201c565b73ffffffffffffffffffffffffffffffffffffffff168273ffffffffffffffffffffffffffffffffffffffff16847f2f8788117e7eff1d82e926ec794901d17c78024a50270940304540a733656f0d60405160405180910390a46001905062000146565b600090505b92915050565b600080600084815260200190815260200160002060000160008373ffffffffffffffffffffffffffffffffffffffff1673ffffffffffffffffffffffffffffffffffffffff16815260200190815260200160002060009054906101000a900460ff16905092915050565b600033905090565b611f3d80620001ce6000396000f3fe608060405234801561001057600080fd5b50600436106101375760003560e01c806361f5f8dc116100b8578063926a694d1161007c578063926a694d146102fa578063940ed80d146103185780639afbcb9c14610334578063a217fddf14610350578063d547741f1461036e578063e938e1d21461038a57610137565b806361f5f8dc1461026c578063668645ca1461028857806373ea210a146102a45780638456cb59146102c057806391d14854146102ca57610137565b80633ba26878116100ff5780633ba26878146101f05780633f4ba83a1461020c57806345e0f753146102165780634bcefde8146102325780635c975abb1461024e57610137565b806301ffc9a71461013c5780630536d1481461016c578063248a9ca3146101885780632f2ff15d146101b857806336568abe146101d4575b600080fd5b610156600480360381019061015191906110d2565b6103a8565b604051610163919061111a565b60405180910390f35b610186600480360381019061018191906112e7565b610422565b005b6101a2600480360381019061019d9190611415565b610536565b6040516101af9190611451565b60405180910390f35b6101d260048036038101906101cd91906114ca565b610555565b005b6101ee60048036038101906101e991906114ca565b610577565b005b61020a6004803603810190610205919061150a565b6105f2565b005b61021461062d565b005b610230600480360381019061022b919061150a565b610645565b005b61024c60048036038101906102479190611537565b610680565b005b610256610730565b604051610263919061111a565b60405180910390f35b61028660048036038101906102819190611593565b610747565b005b6102a2600480360381019061029d9190611632565b6107fd565b005b6102be60048036038101906102b99190611744565b6108e7565b005b6102c86109bc565b005b6102e460048036038101906102df91906114ca565b6109d4565b6040516102f1919061111a565b60405180910390f35b610302610a3e565b60405161030f9190611451565b60405180910390f35b610332600480360381019061032d91906112e7565b610a62565b005b61034e60048036038101906103499190611813565b610b45565b005b610358610c19565b6040516103659190611451565b60405180910390f35b610388600480360381019061038391906114ca565b610c20565b005b610392610c42565b60405161039f9190611451565b60405180910390f35b60007f7965db0b000000000000000000000000000000000000000000000000000000007bffffffffffffffffffffffffffffffffffffffffffffffffffffffff1916827bffffffffffffffffffffffffffffffffffffffffffffffffffffffff1916148061041b575061041a82610c66565b5b9050919050565b61042a610cd0565b6104547fc770db28c0cd3273f34cf5d9c42000d321ac10699eb2e4c81d3afb5299389733336109d4565b8061048557506104847fb66d507c1e3c1bc237b923feddf01f16873f6a23c218ec08d1c8983da3c56309336109d4565b5b6104c4576040517f08c379a00000000000000000000000000000000000000000000000000000000081526004016104bb9061192b565b60405180910390fd5b7f433f13d5f497f41f2eebd5fc871f856e948119ae355a1063579df62260c709486040518060e00160405280898152602001888152602001878152602001868152602001858152602001848152602001838152506040516105259190611aa0565b60405180910390a150505050505050565b6000806000838152602001908152602001600020600101549050919050565b61055e82610536565b61056781610d11565b6105718383610d25565b50505050565b61057f610e16565b73ffffffffffffffffffffffffffffffffffffffff168173ffffffffffffffffffffffffffffffffffffffff16146105e3576040517f6697b23200000000000000000000000000000000000000000000000000000000815260040160405180910390fd5b6105ed8282610e1e565b505050565b6000801b6105ff81610d11565b6106297fc770db28c0cd3273f34cf5d9c42000d321ac10699eb2e4c81d3afb529938973383610555565b5050565b6000801b61063a81610d11565b610642610f10565b50565b6000801b61065281610d11565b61067c7fb66d507c1e3c1bc237b923feddf01f16873f6a23c218ec08d1c8983da3c5630983610555565b5050565b6106aa7fc770db28c0cd3273f34cf5d9c42000d321ac10699eb2e4c81d3afb5299389733336109d4565b6106e9576040517f08c379a00000000000000000000000000000000000000000000000000000000081526004016106e090611b0e565b60405180910390fd5b6106f1610cd0565b7fe00df2265ba0bd3ee4434659ce8e386a2224d5b8c7d0c524f2d78a1f5c6fcee082428360405161072493929190611b76565b60405180910390a15050565b6000600160009054906101000a900460ff16905090565b6107717fc770db28c0cd3273f34cf5d9c42000d321ac10699eb2e4c81d3afb5299389733336109d4565b6107b0576040517f08c379a00000000000000000000000000000000000000000000000000000000081526004016107a790611b0e565b60405180910390fd5b6107b8610cd0565b7fa56ebe5d7e3acdc10a9b69b6ba2576578d0d5d1613721d339873b1be10f8b41484848442856040516107ef959493929190611bb4565b60405180910390a150505050565b6108277fc770db28c0cd3273f34cf5d9c42000d321ac10699eb2e4c81d3afb5299389733336109d4565b610866576040517f08c379a000000000000000000000000000000000000000000000000000000000815260040161085d90611b0e565b60405180910390fd5b61086e610cd0565b7f3ce2a1bd1c73a3eaca1d0d04e84187263b16de9fd795949adfe4089d4a6c46f9604051806101000160405280898152602001888152602001878152602001868152602001428152602001858152602001848152602001838152506040516108d69190611cda565b60405180910390a150505050505050565b6109117fc770db28c0cd3273f34cf5d9c42000d321ac10699eb2e4c81d3afb5299389733336109d4565b610950576040517f08c379a000000000000000000000000000000000000000000000000000000000815260040161094790611b0e565b60405180910390fd5b610958610cd0565b7f48168058523bbc2191776b55eab1ca02f70b119425a731034a490e12293a3c806040518060a00160405280878152602001868152602001858152602001848152602001838152506040516109ad9190611d80565b60405180910390a15050505050565b6000801b6109c981610d11565b6109d1610f73565b50565b600080600084815260200190815260200160002060000160008373ffffffffffffffffffffffffffffffffffffffff1673ffffffffffffffffffffffffffffffffffffffff16815260200190815260200160002060009054906101000a900460ff16905092915050565b7fb66d507c1e3c1bc237b923feddf01f16873f6a23c218ec08d1c8983da3c5630981565b610a8c7fc770db28c0cd3273f34cf5d9c42000d321ac10699eb2e4c81d3afb5299389733336109d4565b610acb576040517f08c379a0000000000000000000000000000000000000000000000000000000008152600401610ac290611b0e565b60405180910390fd5b610ad3610cd0565b7f029c37b66e4d2c6abe2a25add57da4cfc5932cd888f0250a81ff73f29f9545cb6040518060e0016040528089815260200188815260200187815260200186815260200185815260200184815260200183815250604051610b349190611aa0565b60405180910390a150505050505050565b610b6f7fb66d507c1e3c1bc237b923feddf01f16873f6a23c218ec08d1c8983da3c56309336109d4565b610bae576040517f08c379a0000000000000000000000000000000000000000000000000000000008152600401610ba590611dee565b60405180910390fd5b610bb6610cd0565b7f45911e8fe24bebfb305453ee8ddc04cb9ff9e150f6ef3764692bf06297a3a28c6040518060a0016040528086815260200185815260200184815260200142815260200183815250604051610c0b9190611e92565b60405180910390a150505050565b6000801b81565b610c2982610536565b610c3281610d11565b610c3c8383610e1e565b50505050565b7fc770db28c0cd3273f34cf5d9c42000d321ac10699eb2e4c81d3afb529938973381565b60007f01ffc9a7000000000000000000000000000000000000000000000000000000007bffffffffffffffffffffffffffffffffffffffffffffffffffffffff1916827bffffffffffffffffffffffffffffffffffffffffffffffffffffffff1916149050919050565b610cd8610730565b15610d0f576040517fd93c066500000000000000000000000000000000000000000000000000000000815260040160405180910390fd5b565b610d2281610d1d610e16565b610fd5565b50565b6000610d3183836109d4565b610e0b57600160008085815260200190815260200160002060000160008473ffffffffffffffffffffffffffffffffffffffff1673ffffffffffffffffffffffffffffffffffffffff16815260200190815260200160002060006101000a81548160ff021916908315150217905550610da8610e16565b73ffffffffffffffffffffffffffffffffffffffff168273ffffffffffffffffffffffffffffffffffffffff16847f2f8788117e7eff1d82e926ec794901d17c78024a50270940304540a733656f0d60405160405180910390a460019050610e10565b600090505b92915050565b600033905090565b6000610e2a83836109d4565b15610f0557600080600085815260200190815260200160002060000160008473ffffffffffffffffffffffffffffffffffffffff1673ffffffffffffffffffffffffffffffffffffffff16815260200190815260200160002060006101000a81548160ff021916908315150217905550610ea2610e16565b73ffffffffffffffffffffffffffffffffffffffff168273ffffffffffffffffffffffffffffffffffffffff16847ff6391f5c32d9c69d2a47ea670b442974b53935d1edc7fd64eb21e047a839171b60405160405180910390a460019050610f0a565b600090505b92915050565b610f18611026565b6000600160006101000a81548160ff0219169083151502179055507f5db9ee0a495bf2e6ff9c91a7834c1ba4fdd244a5e8aa4e537bd38aeae4b073aa610f5c610e16565b604051610f699190611ec3565b60405180910390a1565b610f7b610cd0565b60018060006101000a81548160ff0219169083151502179055507f62e78cea01bee320cd4e420270b5ea74000d11b0c9f74754ebdbfc544b05a258610fbe610e16565b604051610fcb9190611ec3565b60405180910390a1565b610fdf82826109d4565b6110225780826040517fe2517d3f000000000000000000000000000000000000000000000000000000008152600401611019929190611ede565b60405180910390fd5b5050565b61102e610730565b611064576040517f8dfc202b00000000000000000000000000000000000000000000000000000000815260040160405180910390fd5b565b6000604051905090565b600080fd5b600080fd5b60007fffffffff0000000000000000000000000000000000000000000000000000000082169050919050565b6110af8161107a565b81146110ba57600080fd5b50565b6000813590506110cc816110a6565b92915050565b6000602082840312156110e8576110e7611070565b5b60006110f6848285016110bd565b91505092915050565b60008115159050919050565b611114816110ff565b82525050565b600060208201905061112f600083018461110b565b92915050565b600080fd5b600080fd5b6000601f19601f8301169050919050565b7f4e487b7100000000000000000000000000000000000000000000000000000000600052604160045260246000fd5b6111888261113f565b810181811067ffffffffffffffff821117156111a7576111a6611150565b5b80604052505050565b60006111ba611066565b90506111c6828261117f565b919050565b600067ffffffffffffffff8211156111e6576111e5611150565b5b6111ef8261113f565b9050602081019050919050565b82818337600083830152505050565b600061121e611219846111cb565b6111b0565b90508281526020810184848401111561123a5761123961113a565b5b6112458482856111fc565b509392505050565b600082601f83011261126257611261611135565b5b813561127284826020860161120b565b91505092915050565b6000819050919050565b61128e8161127b565b811461129957600080fd5b50565b6000813590506112ab81611285565b92915050565b6000819050919050565b6112c4816112b1565b81146112cf57600080fd5b50565b6000813590506112e1816112bb565b92915050565b600080600080600080600060e0888a03121561130657611305611070565b5b600088013567ffffffffffffffff81111561132457611323611075565b5b6113308a828b0161124d565b975050602088013567ffffffffffffffff81111561135157611350611075565b5b61135d8a828b0161124d565b965050604088013567ffffffffffffffff81111561137e5761137d611075565b5b61138a8a828b0161124d565b955050606061139b8a828b0161129c565b945050608088013567ffffffffffffffff8111156113bc576113bb611075565b5b6113c88a828b0161124d565b93505060a088013567ffffffffffffffff8111156113e9576113e8611075565b5b6113f58a828b0161124d565b92505060c06114068a828b016112d2565b91505092959891949750929550565b60006020828403121561142b5761142a611070565b5b6000611439848285016112d2565b91505092915050565b61144b816112b1565b82525050565b60006020820190506114666000830184611442565b92915050565b600073ffffffffffffffffffffffffffffffffffffffff82169050919050565b60006114978261146c565b9050919050565b6114a78161148c565b81146114b257600080fd5b50565b6000813590506114c48161149e565b92915050565b600080604083850312156114e1576114e0611070565b5b60006114ef858286016112d2565b9250506020611500858286016114b5565b9150509250929050565b6000602082840312156115205761151f611070565b5b600061152e848285016114b5565b91505092915050565b6000806040838503121561154e5761154d611070565b5b600083013567ffffffffffffffff81111561156c5761156b611075565b5b6115788582860161124d565b92505060206115898582860161129c565b9150509250929050565b600080600080608085870312156115ad576115ac611070565b5b600085013567ffffffffffffffff8111156115cb576115ca611075565b5b6115d78782880161124d565b945050602085013567ffffffffffffffff8111156115f8576115f7611075565b5b6116048782880161124d565b93505060406116158782880161129c565b9250506060611626878288016112d2565b91505092959194509250565b600080600080600080600060e0888a03121561165157611650611070565b5b600088013567ffffffffffffffff81111561166f5761166e611075565b5b61167b8a828b0161124d565b975050602088013567ffffffffffffffff81111561169c5761169b611075565b5b6116a88a828b0161124d565b965050604088013567ffffffffffffffff8111156116c9576116c8611075565b5b6116d58a828b0161124d565b955050606088013567ffffffffffffffff8111156116f6576116f5611075565b5b6117028a828b0161124d565b94505060806117138a828b0161129c565b93505060a06117248a828b0161129c565b92505060c06117358a828b0161129c565b91505092959891949750929550565b600080600080600060a086880312156117605761175f611070565b5b600086013567ffffffffffffffff81111561177e5761177d611075565b5b61178a8882890161124d565b955050602086013567ffffffffffffffff8111156117ab576117aa611075565b5b6117b78882890161124d565b94505060406117c88882890161129c565b93505060606117d98882890161129c565b925050608086013567ffffffffffffffff8111156117fa576117f9611075565b5b6118068882890161124d565b9150509295509295909350565b6000806000806080858703121561182d5761182c611070565b5b600085013567ffffffffffffffff81111561184b5761184a611075565b5b6118578782880161124d565b945050602085013567ffffffffffffffff81111561187857611877611075565b5b6118848782880161124d565b935050604085013567ffffffffffffffff8111156118a5576118a4611075565b5b6118b18782880161124d565b92505060606118c2878288016112d2565b91505092959194509250565b600082825260208201905092915050565b7f43616c6c6572206d7573742062652047504f206f722076656e646f7200000000600082015250565b6000611915601c836118ce565b9150611920826118df565b602082019050919050565b6000602082019050818103600083015261194481611908565b9050919050565b600081519050919050565b600082825260208201905092915050565b60005b8381101561198557808201518184015260208101905061196a565b60008484015250505050565b600061199c8261194b565b6119a68185611956565b93506119b6818560208601611967565b6119bf8161113f565b840191505092915050565b6119d38161127b565b82525050565b6119e2816112b1565b82525050565b600060e0830160008301518482036000860152611a058282611991565b91505060208301518482036020860152611a1f8282611991565b91505060408301518482036040860152611a398282611991565b9150506060830151611a4e60608601826119ca565b5060808301518482036080860152611a668282611991565b91505060a083015184820360a0860152611a808282611991565b91505060c0830151611a9560c08601826119d9565b508091505092915050565b60006020820190508181036000830152611aba81846119e8565b905092915050565b7f43616c6c6572206973206e6f7420612047504f00000000000000000000000000600082015250565b6000611af86013836118ce565b9150611b0382611ac2565b602082019050919050565b60006020820190508181036000830152611b2781611aeb565b9050919050565b6000611b398261194b565b611b4381856118ce565b9350611b53818560208601611967565b611b5c8161113f565b840191505092915050565b611b708161127b565b82525050565b60006060820190508181036000830152611b908186611b2e565b9050611b9f6020830185611b67565b611bac6040830184611b67565b949350505050565b600060a0820190508181036000830152611bce8188611b2e565b90508181036020830152611be28187611b2e565b9050611bf16040830186611b67565b611bfe6060830185611b67565b611c0b6080830184611442565b9695505050505050565b6000610100830160008301518482036000860152611c338282611991565b91505060208301518482036020860152611c4d8282611991565b91505060408301518482036040860152611c678282611991565b91505060608301518482036060860152611c818282611991565b9150506080830151611c9660808601826119ca565b5060a0830151611ca960a08601826119ca565b5060c0830151611cbc60c08601826119ca565b5060e0830151611ccf60e08601826119ca565b508091505092915050565b60006020820190508181036000830152611cf48184611c15565b905092915050565b600060a0830160008301518482036000860152611d198282611991565b91505060208301518482036020860152611d338282611991565b9150506040830151611d4860408601826119ca565b506060830151611d5b60608601826119ca565b5060808301518482036080860152611d738282611991565b9150508091505092915050565b60006020820190508181036000830152611d9a8184611cfc565b905092915050565b7f43616c6c6572206973206e6f7420612076656e646f7200000000000000000000600082015250565b6000611dd86016836118ce565b9150611de382611da2565b602082019050919050565b60006020820190508181036000830152611e0781611dcb565b9050919050565b600060a0830160008301518482036000860152611e2b8282611991565b91505060208301518482036020860152611e458282611991565b91505060408301518482036040860152611e5f8282611991565b9150506060830151611e7460608601826119ca565b506080830151611e8760808601826119d9565b508091505092915050565b60006020820190508181036000830152611eac8184611e0e565b905092915050565b611ebd8161148c565b82525050565b6000602082019050611ed86000830184611eb4565b92915050565b6000604082019050611ef36000830185611eb4565b611f006020830184611442565b939250505056fea2646970667358221220ae8435bc343c3ad133f49771a22e72ed0fc781b43856fbf511af9df2378b857964736f6c63430008140033","opcodes":"PUSH1 0x80 PUSH1 0x40 MSTORE CALLVALUE DUP1 ISZERO PUSH3 0x11 JUMPI PUSH1 0x0 DUP1 REVERT JUMPDEST POP PUSH1 0x0 PUSH1 0x1 PUSH1 0x0 PUSH2 0x100 EXP DUP2 SLOAD DUP2 PUSH1 0xFF MUL NOT AND SWAP1 DUP4 ISZERO ISZERO MUL OR SWAP1 SSTORE POP PUSH3 0x42 PUSH1 0x0 DUP1 SHL CALLER PUSH3 0x49 PUSH1 0x20 SHL PUSH1 0x20 SHR JUMP JUMPDEST POP PUSH3 0x1BE JUMP JUMPDEST PUSH1 0x0 PUSH3 0x5D DUP4 DUP4 PUSH3 0x14C PUSH1 0x20 SHL PUSH1 0x20 SHR JUMP JUMPDEST PUSH3 0x141 JUMPI PUSH1 0x1 PUSH1 0x0 DUP1 DUP6 DUP2 MSTORE PUSH1 0x20 ADD SWAP1 DUP2 MSTORE PUSH1 0x20 ADD PUSH1 0x0 KECCAK256 PUSH1 0x0 ADD PUSH1 0x0 DUP5 PUSH20 0xFFFFFFFFFFFFFFFFFFFFFFFFFFFFFFFFFFFFFFFF AND PUSH20 0xFFFFFFFFFFFFFFFFFFFFFFFFFFFFFFFFFFFFFFFF AND DUP2 MSTORE PUSH1 0x20 ADD SWAP1 DUP2 MSTORE PUSH1 0x20 ADD PUSH1 0x0 KECCAK256 PUSH1 0x0 PUSH2 0x100 EXP DUP2 SLOAD DUP2 PUSH1 0xFF MUL NOT AND SWAP1 DUP4 ISZERO ISZERO MUL OR SWAP1 SSTORE POP PUSH3 0xDD PUSH3 0x1B6 PUSH1 0x20 SHL PUSH1 0x20 SHR JUMP JUMPDEST PUSH20 0xFFFFFFFFFFFFFFFFFFFFFFFFFFFFFFFFFFFFFFFF AND DUP3 PUSH20 0xFFFFFFFFFFFFFFFFFFFFFFFFFFFFFFFFFFFFFFFF AND DUP5 PUSH32 0x2F8788117E7EFF1D82E926EC794901D17C78024A50270940304540A733656F0D PUSH1 0x40 MLOAD PUSH1 0x40 MLOAD DUP1 SWAP2 SUB SWAP1 LOG4 PUSH1 0x1 SWAP1 POP PUSH3 0x146 JUMP JUMPDEST PUSH1 0x0 SWAP1 POP JUMPDEST SWAP3 SWAP2 POP POP JUMP JUMPDEST PUSH1 0x0 DUP1 PUSH1 0x0 DUP5 DUP2 MSTORE PUSH1 0x20 ADD SWAP1 DUP2 MSTORE PUSH1 0x20 ADD PUSH1 0x0 KECCAK256 PUSH1 0x0 ADD PUSH1 0x0 DUP4 PUSH20 0xFFFFFFFFFFFFFFFFFFFFFFFFFFFFFFFFFFFFFFFF AND PUSH20 0xFFFFFFFFFFFFFFFFFFFFFFFFFFFFFFFFFFFFFFFF AND DUP2 MSTORE PUSH1 0x20 ADD SWAP1 DUP2 MSTORE PUSH1 0x20 ADD PUSH1 0x0 KECCAK256 PUSH1 0x0 SWAP1 SLOAD SWAP1 PUSH2 0x100 EXP SWAP1 DIV PUSH1 0xFF AND SWAP1 POP SWAP3 SWAP2 POP POP JUMP JUMPDEST PUSH1 0x0 CALLER SWAP1 POP SWAP1 JUMP JUMPDEST PUSH2 0x1F3D DUP1 PUSH3 0x1CE PUSH1 0x0 CODECOPY PUSH1 0x0 RETURN INVALID PUSH1 0x80 PUSH1 0x40 MSTORE CALLVALUE DUP1 ISZERO PUSH2 0x10 JUMPI PUSH1 0x0 DUP1 REVERT JUMPDEST POP PUSH1 0x4 CALLDATASIZE LT PUSH2 0x137 JUMPI PUSH1 0x0 CALLDATALOAD PUSH1 0xE0 SHR DUP1 PUSH4 0x61F5F8DC GT PUSH2 0xB8 JUMPI DUP1 PUSH4 0x926A694D GT PUSH2 0x7C JUMPI DUP1 PUSH4 0x926A694D EQ PUSH2 0x2FA JUMPI DUP1 PUSH4 0x940ED80D EQ PUSH2 0x318 JUMPI DUP1 PUSH4 0x9AFBCB9C EQ PUSH2 0x334 JUMPI DUP1 PUSH4 0xA217FDDF EQ PUSH2 0x350 JUMPI DUP1 PUSH4 0xD547741F EQ PUSH2 0x36E JUMPI DUP1 PUSH4 0xE938E1D2 EQ PUSH2 0x38A JUMPI PUSH2 0x137 JUMP JUMPDEST DUP1 PUSH4 0x61F5F8DC EQ PUSH2 0x26C JUMPI DUP1 PUSH4 0x668645CA EQ PUSH2 0x288 JUMPI DUP1 PUSH4 0x73EA210A EQ PUSH2 0x2A4 JUMPI DUP1 PUSH4 0x8456CB59 EQ PUSH2 0x2C0 JUMPI DUP1 PUSH4 0x91D14854 EQ PUSH2 0x2CA JUMPI PUSH2 0x137 JUMP JUMPDEST DUP1 PUSH4 0x3BA26878 GT PUSH2 0xFF JUMPI DUP1 PUSH4 0x3BA26878 EQ PUSH2 0x1F0 JUMPI DUP1 PUSH4 0x3F4BA83A EQ PUSH2 0x20C JUMPI DUP1 PUSH4 0x45E0F753 EQ PUSH2 0x216 JUMPI DUP1 PUSH4 0x4BCEFDE8 EQ PUSH2 0x232 JUMPI DUP1 PUSH4 0x5C975ABB EQ PUSH2 0x24E JUMPI PUSH2 0x137 JUMP JUMPDEST DUP1 PUSH4 0x1FFC9A7 EQ PUSH2 0x13C JUMPI DUP1 PUSH4 0x536D148 EQ PUSH2 0x16C JUMPI DUP1 PUSH4 0x248A9CA3 EQ PUSH2 0x188 JUMPI DUP1 PUSH4 0x2F2FF15D EQ PUSH2 0x1B8 JUMPI DUP1 PUSH4 0x36568ABE EQ PUSH2 0x1D4 JUMPI JUMPDEST PUSH1 0x0 DUP1 REVERT JUMPDEST PUSH2 0x156 PUSH1 0x4 DUP1 CALLDATASIZE SUB DUP2 ADD SWAP1 PUSH2 0x151 SWAP2 SWAP1 PUSH2 0x10D2 JUMP JUMPDEST PUSH2 0x3A8 JUMP JUMPDEST PUSH1 0x40 MLOAD PUSH2 0x163 SWAP2 SWAP1 PUSH2 0x111A JUMP JUMPDEST PUSH1 0x40 MLOAD DUP1 SWAP2 SUB SWAP1 RETURN JUMPDEST PUSH2 0x186 PUSH1 0x4 DUP1 CALLDATASIZE SUB DUP2 ADD SWAP1 PUSH2 0x181 SWAP2 SWAP1 PUSH2 0x12E7 JUMP JUMPDEST PUSH2 0x422 JUMP JUMPDEST STOP JUMPDEST PUSH2 0x1A2 PUSH1 0x4 DUP1 CALLDATASIZE SUB DUP2 ADD SWAP1 PUSH2 0x19D SWAP2 SWAP1 PUSH2 0x1415 JUMP JUMPDEST PUSH2 0x536 JUMP JUMPDEST PUSH1 0x40 MLOAD PUSH2 0x1AF SWAP2 SWAP1 PUSH2 0x1451 JUMP JUMPDEST PUSH1 0x40 MLOAD DUP1 SWAP2 SUB SWAP1 RETURN JUMPDEST PUSH2 0x1D2 PUSH1 0x4 DUP1 CALLDATASIZE SUB DUP2 ADD SWAP1 PUSH2 0x1CD SWAP2 SWAP1 PUSH2 0x14CA JUMP JUMPDEST PUSH2 0x555 JUMP JUMPDEST STOP JUMPDEST PUSH2 0x1EE PUSH1 0x4 DUP1 CALLDATASIZE SUB DUP2 ADD SWAP1 PUSH2 0x1E9 SWAP2 SWAP1 PUSH2 0x14CA JUMP JUMPDEST PUSH2 0x577 JUMP JUMPDEST STOP JUMPDEST PUSH2 0x20A PUSH1 0x4 DUP1 CALLDATASIZE SUB DUP2 ADD SWAP1 PUSH2 0x205 SWAP2 SWAP1 PUSH2 0x150A JUMP JUMPDEST PUSH2 0x5F2 JUMP JUMPDEST STOP JUMPDEST PUSH2 0x214 PUSH2 0x62D JUMP JUMPDEST STOP JUMPDEST PUSH2 0x230 PUSH1 0x4 DUP1 CALLDATASIZE SUB DUP2 ADD SWAP1 PUSH2 0x22B SWAP2 SWAP1 PUSH2 0x150A JUMP JUMPDEST PUSH2 0x645 JUMP JUMPDEST STOP JUMPDEST PUSH2 0x24C PUSH1 0x4 DUP1 CALLDATASIZE SUB DUP2 ADD SWAP1 PUSH2 0x247 SWAP2 SWAP1 PUSH2 0x1537 JUMP JUMPDEST PUSH2 0x680 JUMP JUMPDEST STOP JUMPDEST PUSH2 0x256 PUSH2 0x730 JUMP JUMPDEST PUSH1 0x40 MLOAD PUSH2 0x263 SWAP2 SWAP1 PUSH2 0x111A JUMP JUMPDEST PUSH1 0x40 MLOAD DUP1 SWAP2 SUB SWAP1 RETURN JUMPDEST PUSH2 0x286 PUSH1 0x4 DUP1 CALLDATASIZE SUB DUP2 ADD SWAP1 PUSH2 0x281 SWAP2 SWAP1 PUSH2 0x1593 JUMP JUMPDEST PUSH2 0x747 JUMP JUMPDEST STOP JUMPDEST PUSH2 0x2A2 PUSH1 0x4 DUP1 CALLDATASIZE SUB DUP2 ADD SWAP1 PUSH2 0x29D SWAP2 SWAP1 PUSH2 0x1632 JUMP JUMPDEST PUSH2 0x7FD JUMP JUMPDEST STOP JUMPDEST PUSH2 0x2BE PUSH1 0x4 DUP1 CALLDATASIZE SUB DUP2 ADD SWAP1 PUSH2 0x2B9 SWAP2 SWAP1 PUSH2 0x1744 JUMP JUMPDEST PUSH2 0x8E7 JUMP JUMPDEST STOP JUMPDEST PUSH2 0x2C8 PUSH2 0x9BC JUMP JUMPDEST STOP JUMPDEST PUSH2 0x2E4 PUSH1 0x4 DUP1 CALLDATASIZE SUB DUP2 ADD SWAP1 PUSH2 0x2DF SWAP2 SWAP1 PUSH2 0x14CA JUMP JUMPDEST PUSH2 0x9D4 JUMP JUMPDEST PUSH1 0x40 MLOAD PUSH2 0x2F1 SWAP2 SWAP1 PUSH2 0x111A JUMP JUMPDEST PUSH1 0x40 MLOAD DUP1 SWAP2 SUB SWAP1 RETURN JUMPDEST PUSH2 0x302 PUSH2 0xA3E JUMP JUMPDEST PUSH1 0x40 MLOAD PUSH2 0x30F SWAP2 SWAP1 PUSH2 0x1451 JUMP JUMPDEST PUSH1 0x40 MLOAD DUP1 SWAP2 SUB SWAP1 RETURN JUMPDEST PUSH2 0x332 PUSH1 0x4 DUP1 CALLDATASIZE SUB DUP2 ADD SWAP1 PUSH2 0x32D SWAP2 SWAP1 PUSH2 0x12E7 JUMP JUMPDEST PUSH2 0xA62 JUMP JUMPDEST STOP JUMPDEST PUSH2 0x34E PUSH1 0x4 DUP1 CALLDATASIZE SUB DUP2 ADD SWAP1 PUSH2 0x349 SWAP2 SWAP1 PUSH2 0x1813 JUMP JUMPDEST PUSH2 0xB45 JUMP JUMPDEST STOP JUMPDEST PUSH2 0x358 PUSH2 0xC19 JUMP JUMPDEST PUSH1 0x40 MLOAD PUSH2 0x365 SWAP2 SWAP1 PUSH2 0x1451 JUMP JUMPDEST PUSH1 0x40 MLOAD DUP1 SWAP2 SUB SWAP1 RETURN JUMPDEST PUSH2 0x388 PUSH1 0x4 DUP1 CALLDATASIZE SUB DUP2 ADD SWAP1 PUSH2 0x383 SWAP2 SWAP1 PUSH2 0x14CA JUMP JUMPDEST PUSH2 0xC20 JUMP JUMPDEST STOP JUMPDEST PUSH2 0x392 PUSH2 0xC42 JUMP JUMPDEST PUSH1 0x40 MLOAD PUSH2 0x39F SWAP2 SWAP1 PUSH2 0x1451 JUMP JUMPDEST PUSH1 0x40 MLOAD DUP1 SWAP2 SUB SWAP1 RETURN JUMPDEST PUSH1 0x0 PUSH32 0x7965DB0B00000000000000000000000000000000000000000000000000000000 PUSH28 0xFFFFFFFFFFFFFFFFFFFFFFFFFFFFFFFFFFFFFFFFFFFFFFFFFFFFFFFF NOT AND DUP3 PUSH28 0xFFFFFFFFFFFFFFFFFFFFFFFFFFFFFFFFFFFFFFFFFFFFFFFFFFFFFFFF NOT AND EQ DUP1 PUSH2 0x41B JUMPI POP PUSH2 0x41A DUP3 PUSH2 0xC66 JUMP JUMPDEST JUMPDEST SWAP1 POP SWAP2 SWAP1 POP JUMP JUMPDEST PUSH2 0x42A PUSH2 0xCD0 JUMP JUMPDEST PUSH2 0x454 PUSH32 0xC770DB28C0CD3273F34CF5D9C42000D321AC10699EB2E4C81D3AFB5299389733 CALLER PUSH2 0x9D4 JUMP JUMPDEST DUP1 PUSH2 0x485 JUMPI POP PUSH2 0x484 PUSH32 0xB66D507C1E3C1BC237B923FEDDF01F16873F6A23C218EC08D1C8983DA3C56309 CALLER PUSH2 0x9D4 JUMP JUMPDEST JUMPDEST PUSH2 0x4C4 JUMPI PUSH1 0x40 MLOAD PUSH32 0x8C379A000000000000000000000000000000000000000000000000000000000 DUP2 MSTORE PUSH1 0x4 ADD PUSH2 0x4BB SWAP1 PUSH2 0x192B JUMP JUMPDEST PUSH1 0x40 MLOAD DUP1 SWAP2 SUB SWAP1 REVERT JUMPDEST PUSH32 0x433F13D5F497F41F2EEBD5FC871F856E948119AE355A1063579DF62260C70948 PUSH1 0x40 MLOAD DUP1 PUSH1 0xE0 ADD PUSH1 0x40 MSTORE DUP1 DUP10 DUP2 MSTORE PUSH1 0x20 ADD DUP9 DUP2 MSTORE PUSH1 0x20 ADD DUP8 DUP2 MSTORE PUSH1 0x20 ADD DUP7 DUP2 MSTORE PUSH1 0x20 ADD DUP6 DUP2 MSTORE PUSH1 0x20 ADD DUP5 DUP2 MSTORE PUSH1 0x20 ADD DUP4 DUP2 MSTORE POP PUSH1 0x40 MLOAD PUSH2 0x525 SWAP2 SWAP1 PUSH2 0x1AA0 JUMP JUMPDEST PUSH1 0x40 MLOAD DUP1 SWAP2 SUB SWAP1 LOG1 POP POP POP POP POP POP POP JUMP JUMPDEST PUSH1 0x0 DUP1 PUSH1 0x0 DUP4 DUP2 MSTORE PUSH1 0x20 ADD SWAP1 DUP2 MSTORE PUSH1 0x20 ADD PUSH1 0x0 KECCAK256 PUSH1 0x1 ADD SLOAD SWAP1 POP SWAP2 SWAP1 POP JUMP JUMPDEST PUSH2 0x55E DUP3 PUSH2 0x536 JUMP JUMPDEST PUSH2 0x567 DUP2 PUSH2 0xD11 JUMP JUMPDEST PUSH2 0x571 DUP4 DUP4 PUSH2 0xD25 JUMP JUMPDEST POP POP POP POP JUMP JUMPDEST PUSH2 0x57F PUSH2 0xE16 JUMP JUMPDEST PUSH20 0xFFFFFFFFFFFFFFFFFFFFFFFFFFFFFFFFFFFFFFFF AND DUP2 PUSH20 0xFFFFFFFFFFFFFFFFFFFFFFFFFFFFFFFFFFFFFFFF AND EQ PUSH2 0x5E3 JUMPI PUSH1 0x40 MLOAD PUSH32 0x6697B23200000000000000000000000000000000000000000000000000000000 DUP2 MSTORE PUSH1 0x4 ADD PUSH1 0x40 MLOAD DUP1 SWAP2 SUB SWAP1 REVERT JUMPDEST PUSH2 0x5ED DUP3 DUP3 PUSH2 0xE1E JUMP JUMPDEST POP POP POP JUMP JUMPDEST PUSH1 0x0 DUP1 SHL PUSH2 0x5FF DUP2 PUSH2 0xD11 JUMP JUMPDEST PUSH2 0x629 PUSH32 0xC770DB28C0CD3273F34CF5D9C42000D321AC10699EB2E4C81D3AFB5299389733 DUP4 PUSH2 0x555 JUMP JUMPDEST POP POP JUMP JUMPDEST PUSH1 0x0 DUP1 SHL PUSH2 0x63A DUP2 PUSH2 0xD11 JUMP JUMPDEST PUSH2 0x642 PUSH2 0xF10 JUMP JUMPDEST POP JUMP JUMPDEST PUSH1 0x0 DUP1 SHL PUSH2 0x652 DUP2 PUSH2 0xD11 JUMP JUMPDEST PUSH2 0x67C PUSH32 0xB66D507C1E3C1BC237B923FEDDF01F16873F6A23C218EC08D1C8983DA3C56309 DUP4 PUSH2 0x555 JUMP JUMPDEST POP POP JUMP JUMPDEST PUSH2 0x6AA PUSH32 0xC770DB28C0CD3273F34CF5D9C42000D321AC10699EB2E4C81D3AFB5299389733 CALLER PUSH2 0x9D4 JUMP JUMPDEST PUSH2 0x6E9 JUMPI PUSH1 0x40 MLOAD PUSH32 0x8C379A000000000000000000000000000000000000000000000000000000000 DUP2 MSTORE PUSH1 0x4 ADD PUSH2 0x6E0 SWAP1 PUSH2 0x1B0E JUMP JUMPDEST PUSH1 0x40 MLOAD DUP1 SWAP2 SUB SWAP1 REVERT JUMPDEST PUSH2 0x6F1 PUSH2 0xCD0 JUMP JUMPDEST PUSH32 0xE00DF2265BA0BD3EE4434659CE8E386A2224D5B8C7D0C524F2D78A1F5C6FCEE0 DUP3 TIMESTAMP DUP4 PUSH1 0x40 MLOAD PUSH2 0x724 SWAP4 SWAP3 SWAP2 SWAP1 PUSH2 0x1B76 JUMP JUMPDEST PUSH1 0x40 MLOAD DUP1 SWAP2 SUB SWAP1 LOG1 POP POP JUMP JUMPDEST PUSH1 0x0 PUSH1 0x1 PUSH1 0x0 SWAP1 SLOAD SWAP1 PUSH2 0x100 EXP SWAP1 DIV PUSH1 0xFF AND SWAP1 POP SWAP1 JUMP JUMPDEST PUSH2 0x771 PUSH32 0xC770DB28C0CD3273F34CF5D9C42000D321AC10699EB2E4C81D3AFB5299389733 CALLER PUSH2 0x9D4 JUMP JUMPDEST PUSH2 0x7B0 JUMPI PUSH1 0x40 MLOAD PUSH32 0x8C379A000000000000000000000000000000000000000000000000000000000 DUP2 MSTORE PUSH1 0x4 ADD PUSH2 0x7A7 SWAP1 PUSH2 0x1B0E JUMP JUMPDEST PUSH1 0x40 MLOAD DUP1 SWAP2 SUB SWAP1 REVERT JUMPDEST PUSH2 0x7B8 PUSH2 0xCD0 JUMP JUMPDEST PUSH32 0xA56EBE5D7E3ACDC10A9B69B6BA2576578D0D5D1613721D339873B1BE10F8B414 DUP5 DUP5 DUP5 TIMESTAMP DUP6 PUSH1 0x40 MLOAD PUSH2 0x7EF SWAP6 SWAP5 SWAP4 SWAP3 SWAP2 SWAP1 PUSH2 0x1BB4 JUMP JUMPDEST PUSH1 0x40 MLOAD DUP1 SWAP2 SUB SWAP1 LOG1 POP POP POP POP JUMP JUMPDEST PUSH2 0x827 PUSH32 0xC770DB28C0CD3273F34CF5D9C42000D321AC10699EB2E4C81D3AFB5299389733 CALLER PUSH2 0x9D4 JUMP JUMPDEST PUSH2 0x866 JUMPI PUSH1 0x40 MLOAD PUSH32 0x8C379A000000000000000000000000000000000000000000000000000000000 DUP2 MSTORE PUSH1 0x4 ADD PUSH2 0x85D SWAP1 PUSH2 0x1B0E JUMP JUMPDEST PUSH1 0x40 MLOAD DUP1 SWAP2 SUB SWAP1 REVERT JUMPDEST PUSH2 0x86E PUSH2 0xCD0 JUMP JUMPDEST PUSH32 0x3CE2A1BD1C73A3EACA1D0D04E84187263B16DE9FD795949ADFE4089D4A6C46F9 PUSH1 0x40 MLOAD DUP1 PUSH2 0x100 ADD PUSH1 0x40 MSTORE DUP1 DUP10 DUP2 MSTORE PUSH1 0x20 ADD DUP9 DUP2 MSTORE PUSH1 0x20 ADD DUP8 DUP2 MSTORE PUSH1 0x20 ADD DUP7 DUP2 MSTORE PUSH1 0x20 ADD TIMESTAMP DUP2 MSTORE PUSH1 0x20 ADD DUP6 DUP2 MSTORE PUSH1 0x20 ADD DUP5 DUP2 MSTORE PUSH1 0x20 ADD DUP4 DUP2 MSTORE POP PUSH1 0x40 MLOAD PUSH2 0x8D6 SWAP2 SWAP1 PUSH2 0x1CDA JUMP JUMPDEST PUSH1 0x40 MLOAD DUP1 SWAP2 SUB SWAP1 LOG1 POP POP POP POP POP POP POP JUMP JUMPDEST PUSH2 0x911 PUSH32 0xC770DB28C0CD3273F34CF5D9C42000D321AC10699EB2E4C81D3AFB5299389733 CALLER PUSH2 0x9D4 JUMP JUMPDEST PUSH2 0x950 JUMPI PUSH1 0x40 MLOAD PUSH32 0x8C379A000000000000000000000000000000000000000000000000000000000 DUP2 MSTORE PUSH1 0x4 ADD PUSH2 0x947 SWAP1 PUSH2 0x1B0E JUMP JUMPDEST PUSH1 0x40 MLOAD DUP1 SWAP2 SUB SWAP1 REVERT JUMPDEST PUSH2 0x958 PUSH2 0xCD0 JUMP JUMPDEST PUSH32 0x48168058523BBC2191776B55EAB1CA02F70B119425A731034A490E12293A3C80 PUSH1 0x40 MLOAD DUP1 PUSH1 0xA0 ADD PUSH1 0x40 MSTORE DUP1 DUP8 DUP2 MSTORE PUSH1 0x20 ADD DUP7 DUP2 MSTORE PUSH1 0x20 ADD DUP6 DUP2 MSTORE PUSH1 0x20 ADD DUP5 DUP2 MSTORE PUSH1 0x20 ADD DUP4 DUP2 MSTORE POP PUSH1 0x40 MLOAD PUSH2 0x9AD SWAP2 SWAP1 PUSH2 0x1D80 JUMP JUMPDEST PUSH1 0x40 MLOAD DUP1 SWAP2 SUB SWAP1 LOG1 POP POP POP POP POP JUMP JUMPDEST PUSH1 0x0 DUP1 SHL PUSH2 0x9C9 DUP2 PUSH2 0xD11 JUMP JUMPDEST PUSH2 0x9D1 PUSH2 0xF73 JUMP JUMPDEST POP JUMP JUMPDEST PUSH1 0x0 DUP1 PUSH1 0x0 DUP5 DUP2 MSTORE PUSH1 0x20 ADD SWAP1 DUP2 MSTORE PUSH1 0x20 ADD PUSH1 0x0 KECCAK256 PUSH1 0x0 ADD PUSH1 0x0 DUP4 PUSH20 0xFFFFFFFFFFFFFFFFFFFFFFFFFFFFFFFFFFFFFFFF AND PUSH20 0xFFFFFFFFFFFFFFFFFFFFFFFFFFFFFFFFFFFFFFFF AND DUP2 MSTORE PUSH1 0x20 ADD SWAP1 DUP2 MSTORE PUSH1 0x20 ADD PUSH1 0x0 KECCAK256 PUSH1 0x0 SWAP1 SLOAD SWAP1 PUSH2 0x100 EXP SWAP1 DIV PUSH1 0xFF AND SWAP1 POP SWAP3 SWAP2 POP POP JUMP JUMPDEST PUSH32 0xB66D507C1E3C1BC237B923FEDDF01F16873F6A23C218EC08D1C8983DA3C56309 DUP2 JUMP JUMPDEST PUSH2 0xA8C PUSH32 0xC770DB28C0CD3273F34CF5D9C42000D321AC10699EB2E4C81D3AFB5299389733 CALLER PUSH2 0x9D4 JUMP JUMPDEST PUSH2 0xACB JUMPI PUSH1 0x40 MLOAD PUSH32 0x8C379A000000000000000000000000000000000000000000000000000000000 DUP2 MSTORE PUSH1 0x4 ADD PUSH2 0xAC2 SWAP1 PUSH2 0x1B0E JUMP JUMPDEST PUSH1 0x40 MLOAD DUP1 SWAP2 SUB SWAP1 REVERT JUMPDEST PUSH2 0xAD3 PUSH2 0xCD0 JUMP JUMPDEST PUSH32 0x29C37B66E4D2C6ABE2A25ADD57DA4CFC5932CD888F0250A81FF73F29F9545CB PUSH1 0x40 MLOAD DUP1 PUSH1 0xE0 ADD PUSH1 0x40 MSTORE DUP1 DUP10 DUP2 MSTORE PUSH1 0x20 ADD DUP9 DUP2 MSTORE PUSH1 0x20 ADD DUP8 DUP2 MSTORE PUSH1 0x20 ADD DUP7 DUP2 MSTORE PUSH1 0x20 ADD DUP6 DUP2 MSTORE PUSH1 0x20 ADD DUP5 DUP2 MSTORE PUSH1 0x20 ADD DUP4 DUP2 MSTORE POP PUSH1 0x40 MLOAD PUSH2 0xB34 SWAP2 SWAP1 PUSH2 0x1AA0 JUMP JUMPDEST PUSH1 0x40 MLOAD DUP1 SWAP2 SUB SWAP1 LOG1 POP POP POP POP POP POP POP JUMP JUMPDEST PUSH2 0xB6F PUSH32 0xB66D507C1E3C1BC237B923FEDDF01F16873F6A23C218EC08D1C8983DA3C56309 CALLER PUSH2 0x9D4 JUMP JUMPDEST PUSH2 0xBAE JUMPI PUSH1 0x40 MLOAD PUSH32 0x8C379A000000000000000000000000000000000000000000000000000000000 DUP2 MSTORE PUSH1 0x4 ADD PUSH2 0xBA5 SWAP1 PUSH2 0x1DEE JUMP JUMPDEST PUSH1 0x40 MLOAD DUP1 SWAP2 SUB SWAP1 REVERT JUMPDEST PUSH2 0xBB6 PUSH2 0xCD0 JUMP JUMPDEST PUSH32 0x45911E8FE24BEBFB305453EE8DDC04CB9FF9E150F6EF3764692BF06297A3A28C PUSH1 0x40 MLOAD DUP1 PUSH1 0xA0 ADD PUSH1 0x40 MSTORE DUP1 DUP7 DUP2 MSTORE PUSH1 0x20 ADD DUP6 DUP2 MSTORE PUSH1 0x20 ADD DUP5 DUP2 MSTORE PUSH1 0x20 ADD TIMESTAMP DUP2 MSTORE PUSH1 0x20 ADD DUP4 DUP2 MSTORE POP PUSH1 0x40 MLOAD PUSH2 0xC0B SWAP2 SWAP1 PUSH2 0x1E92 JUMP JUMPDEST PUSH1 0x40 MLOAD DUP1 SWAP2 SUB SWAP1 LOG1 POP POP POP POP JUMP JUMPDEST PUSH1 0x0 DUP1 SHL DUP2 JUMP JUMPDEST PUSH2 0xC29 DUP3 PUSH2 0x536 JUMP JUMPDEST PUSH2 0xC32 DUP2 PUSH2 0xD11 JUMP JUMPDEST PUSH2 0xC3C DUP4 DUP4 PUSH2 0xE1E JUMP JUMPDEST POP POP POP POP JUMP JUMPDEST PUSH32 0xC770DB28C0CD3273F34CF5D9C42000D321AC10699EB2E4C81D3AFB5299389733 DUP2 JUMP JUMPDEST PUSH1 0x0 PUSH32 0x1FFC9A700000000000000000000000000000000000000000000000000000000 PUSH28 0xFFFFFFFFFFFFFFFFFFFFFFFFFFFFFFFFFFFFFFFFFFFFFFFFFFFFFFFF NOT AND DUP3 PUSH28 0xFFFFFFFFFFFFFFFFFFFFFFFFFFFFFFFFFFFFFFFFFFFFFFFFFFFFFFFF NOT AND EQ SWAP1 POP SWAP2 SWAP1 POP JUMP JUMPDEST PUSH2 0xCD8 PUSH2 0x730 JUMP JUMPDEST ISZERO PUSH2 0xD0F JUMPI PUSH1 0x40 MLOAD PUSH32 0xD93C066500000000000000000000000000000000000000000000000000000000 DUP2 MSTORE PUSH1 0x4 ADD PUSH1 0x40 MLOAD DUP1 SWAP2 SUB SWAP1 REVERT JUMPDEST JUMP JUMPDEST PUSH2 0xD22 DUP2 PUSH2 0xD1D PUSH2 0xE16 JUMP JUMPDEST PUSH2 0xFD5 JUMP JUMPDEST POP JUMP JUMPDEST PUSH1 0x0 PUSH2 0xD31 DUP4 DUP4 PUSH2 0x9D4 JUMP JUMPDEST PUSH2 0xE0B JUMPI PUSH1 0x1 PUSH1 0x0 DUP1 DUP6 DUP2 MSTORE PUSH1 0x20 ADD SWAP1 DUP2 MSTORE PUSH1 0x20 ADD PUSH1 0x0 KECCAK256 PUSH1 0x0 ADD PUSH1 0x0 DUP5 PUSH20 0xFFFFFFFFFFFFFFFFFFFFFFFFFFFFFFFFFFFFFFFF AND PUSH20 0xFFFFFFFFFFFFFFFFFFFFFFFFFFFFFFFFFFFFFFFF AND DUP2 MSTORE PUSH1 0x20 ADD SWAP1 DUP2 MSTORE PUSH1 0x20 ADD PUSH1 0x0 KECCAK256 PUSH1 0x0 PUSH2 0x100 EXP DUP2 SLOAD DUP2 PUSH1 0xFF MUL NOT AND SWAP1 DUP4 ISZERO ISZERO MUL OR SWAP1 SSTORE POP PUSH2 0xDA8 PUSH2 0xE16 JUMP JUMPDEST PUSH20 0xFFFFFFFFFFFFFFFFFFFFFFFFFFFFFFFFFFFFFFFF AND DUP3 PUSH20 0xFFFFFFFFFFFFFFFFFFFFFFFFFFFFFFFFFFFFFFFF AND DUP5 PUSH32 0x2F8788117E7EFF1D82E926EC794901D17C78024A50270940304540A733656F0D PUSH1 0x40 MLOAD PUSH1 0x40 MLOAD DUP1 SWAP2 SUB SWAP1 LOG4 PUSH1 0x1 SWAP1 POP PUSH2 0xE10 JUMP JUMPDEST PUSH1 0x0 SWAP1 POP JUMPDEST SWAP3 SWAP2 POP POP JUMP JUMPDEST PUSH1 0x0 CALLER SWAP1 POP SWAP1 JUMP JUMPDEST PUSH1 0x0 PUSH2 0xE2A DUP4 DUP4 PUSH2 0x9D4 JUMP JUMPDEST ISZERO PUSH2 0xF05 JUMPI PUSH1 0x0 DUP1 PUSH1 0x0 DUP6 DUP2 MSTORE PUSH1 0x20 ADD SWAP1 DUP2 MSTORE PUSH1 0x20 ADD PUSH1 0x0 KECCAK256 PUSH1 0x0 ADD PUSH1 0x0 DUP5 PUSH20 0xFFFFFFFFFFFFFFFFFFFFFFFFFFFFFFFFFFFFFFFF AND PUSH20 0xFFFFFFFFFFFFFFFFFFFFFFFFFFFFFFFFFFFFFFFF AND DUP2 MSTORE PUSH1 0x20 ADD SWAP1 DUP2 MSTORE PUSH1 0x20 ADD PUSH1 0x0 KECCAK256 PUSH1 0x0 PUSH2 0x100 EXP DUP2 SLOAD DUP2 PUSH1 0xFF MUL NOT AND SWAP1 DUP4 ISZERO ISZERO MUL OR SWAP1 SSTORE POP PUSH2 0xEA2 PUSH2 0xE16 JUMP JUMPDEST PUSH20 0xFFFFFFFFFFFFFFFFFFFFFFFFFFFFFFFFFFFFFFFF AND DUP3 PUSH20 0xFFFFFFFFFFFFFFFFFFFFFFFFFFFFFFFFFFFFFFFF AND DUP5 PUSH32 0xF6391F5C32D9C69D2A47EA670B442974B53935D1EDC7FD64EB21E047A839171B PUSH1 0x40 MLOAD PUSH1 0x40 MLOAD DUP1 SWAP2 SUB SWAP1 LOG4 PUSH1 0x1 SWAP1 POP PUSH2 0xF0A JUMP JUMPDEST PUSH1 0x0 SWAP1 POP JUMPDEST SWAP3 SWAP2 POP POP JUMP JUMPDEST PUSH2 0xF18 PUSH2 0x1026 JUMP JUMPDEST PUSH1 0x0 PUSH1 0x1 PUSH1 0x0 PUSH2 0x100 EXP DUP2 SLOAD DUP2 PUSH1 0xFF MUL NOT AND SWAP1 DUP4 ISZERO ISZERO MUL OR SWAP1 SSTORE POP PUSH32 0x5DB9EE0A495BF2E6FF9C91A7834C1BA4FDD244A5E8AA4E537BD38AEAE4B073AA PUSH2 0xF5C PUSH2 0xE16 JUMP JUMPDEST PUSH1 0x40 MLOAD PUSH2 0xF69 SWAP2 SWAP1 PUSH2 0x1EC3 JUMP JUMPDEST PUSH1 0x40 MLOAD DUP1 SWAP2 SUB SWAP1 LOG1 JUMP JUMPDEST PUSH2 0xF7B PUSH2 0xCD0 JUMP JUMPDEST PUSH1 0x1 DUP1 PUSH1 0x0 PUSH2 0x100 EXP DUP2 SLOAD DUP2 PUSH1 0xFF MUL NOT AND SWAP1 DUP4 ISZERO ISZERO MUL OR SWAP1 SSTORE POP PUSH32 0x62E78CEA01BEE320CD4E420270B5EA74000D11B0C9F74754EBDBFC544B05A258 PUSH2 0xFBE PUSH2 0xE16 JUMP JUMPDEST PUSH1 0x40 MLOAD PUSH2 0xFCB SWAP2 SWAP1 PUSH2 0x1EC3 JUMP JUMPDEST PUSH1 0x40 MLOAD DUP1 SWAP2 SUB SWAP1 LOG1 JUMP JUMPDEST PUSH2 0xFDF DUP3 DUP3 PUSH2 0x9D4 JUMP JUMPDEST PUSH2 0x1022 JUMPI DUP1 DUP3 PUSH1 0x40 MLOAD PUSH32 0xE2517D3F00000000000000000000000000000000000000000000000000000000 DUP2 MSTORE PUSH1 0x4 ADD PUSH2 0x1019 SWAP3 SWAP2 SWAP1 PUSH2 0x1EDE JUMP JUMPDEST PUSH1 0x40 MLOAD DUP1 SWAP2 SUB SWAP1 REVERT JUMPDEST POP POP JUMP JUMPDEST PUSH2 0x102E PUSH2 0x730 JUMP JUMPDEST PUSH2 0x1064 JUMPI PUSH1 0x40 MLOAD PUSH32 0x8DFC202B00000000000000000000000000000000000000000000000000000000 DUP2 MSTORE PUSH1 0x4 ADD PUSH1 0x40 MLOAD DUP1 SWAP2 SUB SWAP1 REVERT JUMPDEST JUMP JUMPDEST PUSH1 0x0 PUSH1 0x40 MLOAD SWAP1 POP SWAP1 JUMP JUMPDEST PUSH1 0x0 DUP1 REVERT JUMPDEST PUSH1 0x0 DUP1 REVERT JUMPDEST PUSH1 0x0 PUSH32 0xFFFFFFFF00000000000000000000000000000000000000000000000000000000 DUP3 AND SWAP1 POP SWAP2 SWAP1 POP JUMP JUMPDEST PUSH2 0x10AF DUP2 PUSH2 0x107A JUMP JUMPDEST DUP2 EQ PUSH2 0x10BA JUMPI PUSH1 0x0 DUP1 REVERT JUMPDEST POP JUMP JUMPDEST PUSH1 0x0 DUP2 CALLDATALOAD SWAP1 POP PUSH2 0x10CC DUP2 PUSH2 0x10A6 JUMP JUMPDEST SWAP3 SWAP2 POP POP JUMP JUMPDEST PUSH1 0x0 PUSH1 0x20 DUP3 DUP5 SUB SLT ISZERO PUSH2 0x10E8 JUMPI PUSH2 0x10E7 PUSH2 0x1070 JUMP JUMPDEST JUMPDEST PUSH1 0x0 PUSH2 0x10F6 DUP5 DUP3 DUP6 ADD PUSH2 0x10BD JUMP JUMPDEST SWAP2 POP POP SWAP3 SWAP2 POP POP JUMP JUMPDEST PUSH1 0x0 DUP2 ISZERO ISZERO SWAP1 POP SWAP2 SWAP1 POP JUMP JUMPDEST PUSH2 0x1114 DUP2 PUSH2 0x10FF JUMP JUMPDEST DUP3 MSTORE POP POP JUMP JUMPDEST PUSH1 0x0 PUSH1 0x20 DUP3 ADD SWAP1 POP PUSH2 0x112F PUSH1 0x0 DUP4 ADD DUP5 PUSH2 0x110B JUMP JUMPDEST SWAP3 SWAP2 POP POP JUMP JUMPDEST PUSH1 0x0 DUP1 REVERT JUMPDEST PUSH1 0x0 DUP1 REVERT JUMPDEST PUSH1 0x0 PUSH1 0x1F NOT PUSH1 0x1F DUP4 ADD AND SWAP1 POP SWAP2 SWAP1 POP JUMP JUMPDEST PUSH32 0x4E487B7100000000000000000000000000000000000000000000000000000000 PUSH1 0x0 MSTORE PUSH1 0x41 PUSH1 0x4 MSTORE PUSH1 0x24 PUSH1 0x0 REVERT JUMPDEST PUSH2 0x1188 DUP3 PUSH2 0x113F JUMP JUMPDEST DUP2 ADD DUP2 DUP2 LT PUSH8 0xFFFFFFFFFFFFFFFF DUP3 GT OR ISZERO PUSH2 0x11A7 JUMPI PUSH2 0x11A6 PUSH2 0x1150 JUMP JUMPDEST JUMPDEST DUP1 PUSH1 0x40 MSTORE POP POP POP JUMP JUMPDEST PUSH1 0x0 PUSH2 0x11BA PUSH2 0x1066 JUMP JUMPDEST SWAP1 POP PUSH2 0x11C6 DUP3 DUP3 PUSH2 0x117F JUMP JUMPDEST SWAP2 SWAP1 POP JUMP JUMPDEST PUSH1 0x0 PUSH8 0xFFFFFFFFFFFFFFFF DUP3 GT ISZERO PUSH2 0x11E6 JUMPI PUSH2 0x11E5 PUSH2 0x1150 JUMP JUMPDEST JUMPDEST PUSH2 0x11EF DUP3 PUSH2 0x113F JUMP JUMPDEST SWAP1 POP PUSH1 0x20 DUP2 ADD SWAP1 POP SWAP2 SWAP1 POP JUMP JUMPDEST DUP3 DUP2 DUP4 CALLDATACOPY PUSH1 0x0 DUP4 DUP4 ADD MSTORE POP POP POP JUMP JUMPDEST PUSH1 0x0 PUSH2 0x121E PUSH2 0x1219 DUP5 PUSH2 0x11CB JUMP JUMPDEST PUSH2 0x11B0 JUMP JUMPDEST SWAP1 POP DUP3 DUP2 MSTORE PUSH1 0x20 DUP2 ADD DUP5 DUP5 DUP5 ADD GT ISZERO PUSH2 0x123A JUMPI PUSH2 0x1239 PUSH2 0x113A JUMP JUMPDEST JUMPDEST PUSH2 0x1245 DUP5 DUP3 DUP6 PUSH2 0x11FC JUMP JUMPDEST POP SWAP4 SWAP3 POP POP POP JUMP JUMPDEST PUSH1 0x0 DUP3 PUSH1 0x1F DUP4 ADD SLT PUSH2 0x1262 JUMPI PUSH2 0x1261 PUSH2 0x1135 JUMP JUMPDEST JUMPDEST DUP2 CALLDATALOAD PUSH2 0x1272 DUP5 DUP3 PUSH1 0x20 DUP7 ADD PUSH2 0x120B JUMP JUMPDEST SWAP2 POP POP SWAP3 SWAP2 POP POP JUMP JUMPDEST PUSH1 0x0 DUP2 SWAP1 POP SWAP2 SWAP1 POP JUMP JUMPDEST PUSH2 0x128E DUP2 PUSH2 0x127B JUMP JUMPDEST DUP2 EQ PUSH2 0x1299 JUMPI PUSH1 0x0 DUP1 REVERT JUMPDEST POP JUMP JUMPDEST PUSH1 0x0 DUP2 CALLDATALOAD SWAP1 POP PUSH2 0x12AB DUP2 PUSH2 0x1285 JUMP JUMPDEST SWAP3 SWAP2 POP POP JUMP JUMPDEST PUSH1 0x0 DUP2 SWAP1 POP SWAP2 SWAP1 POP JUMP JUMPDEST PUSH2 0x12C4 DUP2 PUSH2 0x12B1 JUMP JUMPDEST DUP2 EQ PUSH2 0x12CF JUMPI PUSH1 0x0 DUP1 REVERT JUMPDEST POP JUMP JUMPDEST PUSH1 0x0 DUP2 CALLDATALOAD SWAP1 POP PUSH2 0x12E1 DUP2 PUSH2 0x12BB JUMP JUMPDEST SWAP3 SWAP2 POP POP JUMP JUMPDEST PUSH1 0x0 DUP1 PUSH1 0x0 DUP1 PUSH1 0x0 DUP1 PUSH1 0x0 PUSH1 0xE0 DUP9 DUP11 SUB SLT ISZERO PUSH2 0x1306 JUMPI PUSH2 0x1305 PUSH2 0x1070 JUMP JUMPDEST JUMPDEST PUSH1 0x0 DUP9 ADD CALLDATALOAD PUSH8 0xFFFFFFFFFFFFFFFF DUP2 GT ISZERO PUSH2 0x1324 JUMPI PUSH2 0x1323 PUSH2 0x1075 JUMP JUMPDEST JUMPDEST PUSH2 0x1330 DUP11 DUP3 DUP12 ADD PUSH2 0x124D JUMP JUMPDEST SWAP8 POP POP PUSH1 0x20 DUP9 ADD CALLDATALOAD PUSH8 0xFFFFFFFFFFFFFFFF DUP2 GT ISZERO PUSH2 0x1351 JUMPI PUSH2 0x1350 PUSH2 0x1075 JUMP JUMPDEST JUMPDEST PUSH2 0x135D DUP11 DUP3 DUP12 ADD PUSH2 0x124D JUMP JUMPDEST SWAP7 POP POP PUSH1 0x40 DUP9 ADD CALLDATALOAD PUSH8 0xFFFFFFFFFFFFFFFF DUP2 GT ISZERO PUSH2 0x137E JUMPI PUSH2 0x137D PUSH2 0x1075 JUMP JUMPDEST JUMPDEST PUSH2 0x138A DUP11 DUP3 DUP12 ADD PUSH2 0x124D JUMP JUMPDEST SWAP6 POP POP PUSH1 0x60 PUSH2 0x139B DUP11 DUP3 DUP12 ADD PUSH2 0x129C JUMP JUMPDEST SWAP5 POP POP PUSH1 0x80 DUP9 ADD CALLDATALOAD PUSH8 0xFFFFFFFFFFFFFFFF DUP2 GT ISZERO PUSH2 0x13BC JUMPI PUSH2 0x13BB PUSH2 0x1075 JUMP JUMPDEST JUMPDEST PUSH2 0x13C8 DUP11 DUP3 DUP12 ADD PUSH2 0x124D JUMP JUMPDEST SWAP4 POP POP PUSH1 0xA0 DUP9 ADD CALLDATALOAD PUSH8 0xFFFFFFFFFFFFFFFF DUP2 GT ISZERO PUSH2 0x13E9 JUMPI PUSH2 0x13E8 PUSH2 0x1075 JUMP JUMPDEST JUMPDEST PUSH2 0x13F5 DUP11 DUP3 DUP12 ADD PUSH2 0x124D JUMP JUMPDEST SWAP3 POP POP PUSH1 0xC0 PUSH2 0x1406 DUP11 DUP3 DUP12 ADD PUSH2 0x12D2 JUMP JUMPDEST SWAP2 POP POP SWAP3 SWAP6 SWAP9 SWAP2 SWAP5 SWAP8 POP SWAP3 SWAP6 POP JUMP JUMPDEST PUSH1 0x0 PUSH1 0x20 DUP3 DUP5 SUB SLT ISZERO PUSH2 0x142B JUMPI PUSH2 0x142A PUSH2 0x1070 JUMP JUMPDEST JUMPDEST PUSH1 0x0 PUSH2 0x1439 DUP5 DUP3 DUP6 ADD PUSH2 0x12D2 JUMP JUMPDEST SWAP2 POP POP SWAP3 SWAP2 POP POP JUMP JUMPDEST PUSH2 0x144B DUP2 PUSH2 0x12B1 JUMP JUMPDEST DUP3 MSTORE POP POP JUMP JUMPDEST PUSH1 0x0 PUSH1 0x20 DUP3 ADD SWAP1 POP PUSH2 0x1466 PUSH1 0x0 DUP4 ADD DUP5 PUSH2 0x1442 JUMP JUMPDEST SWAP3 SWAP2 POP POP JUMP JUMPDEST PUSH1 0x0 PUSH20 0xFFFFFFFFFFFFFFFFFFFFFFFFFFFFFFFFFFFFFFFF DUP3 AND SWAP1 POP SWAP2 SWAP1 POP JUMP JUMPDEST PUSH1 0x0 PUSH2 0x1497 DUP3 PUSH2 0x146C JUMP JUMPDEST SWAP1 POP SWAP2 SWAP1 POP JUMP JUMPDEST PUSH2 0x14A7 DUP2 PUSH2 0x148C JUMP JUMPDEST DUP2 EQ PUSH2 0x14B2 JUMPI PUSH1 0x0 DUP1 REVERT JUMPDEST POP JUMP JUMPDEST PUSH1 0x0 DUP2 CALLDATALOAD SWAP1 POP PUSH2 0x14C4 DUP2 PUSH2 0x149E JUMP JUMPDEST SWAP3 SWAP2 POP POP JUMP JUMPDEST PUSH1 0x0 DUP1 PUSH1 0x40 DUP4 DUP6 SUB SLT ISZERO PUSH2 0x14E1 JUMPI PUSH2 0x14E0 PUSH2 0x1070 JUMP JUMPDEST JUMPDEST PUSH1 0x0 PUSH2 0x14EF DUP6 DUP3 DUP7 ADD PUSH2 0x12D2 JUMP JUMPDEST SWAP3 POP POP PUSH1 0x20 PUSH2 0x1500 DUP6 DUP3 DUP7 ADD PUSH2 0x14B5 JUMP JUMPDEST SWAP2 POP POP SWAP3 POP SWAP3 SWAP1 POP JUMP JUMPDEST PUSH1 0x0 PUSH1 0x20 DUP3 DUP5 SUB SLT ISZERO PUSH2 0x1520 JUMPI PUSH2 0x151F PUSH2 0x1070 JUMP JUMPDEST JUMPDEST PUSH1 0x0 PUSH2 0x152E DUP5 DUP3 DUP6 ADD PUSH2 0x14B5 JUMP JUMPDEST SWAP2 POP POP SWAP3 SWAP2 POP POP JUMP JUMPDEST PUSH1 0x0 DUP1 PUSH1 0x40 DUP4 DUP6 SUB SLT ISZERO PUSH2 0x154E JUMPI PUSH2 0x154D PUSH2 0x1070 JUMP JUMPDEST JUMPDEST PUSH1 0x0 DUP4 ADD CALLDATALOAD PUSH8 0xFFFFFFFFFFFFFFFF DUP2 GT ISZERO PUSH2 0x156C JUMPI PUSH2 0x156B PUSH2 0x1075 JUMP JUMPDEST JUMPDEST PUSH2 0x1578 DUP6 DUP3 DUP7 ADD PUSH2 0x124D JUMP JUMPDEST SWAP3 POP POP PUSH1 0x20 PUSH2 0x1589 DUP6 DUP3 DUP7 ADD PUSH2 0x129C JUMP JUMPDEST SWAP2 POP POP SWAP3 POP SWAP3 SWAP1 POP JUMP JUMPDEST PUSH1 0x0 DUP1 PUSH1 0x0 DUP1 PUSH1 0x80 DUP6 DUP8 SUB SLT ISZERO PUSH2 0x15AD JUMPI PUSH2 0x15AC PUSH2 0x1070 JUMP JUMPDEST JUMPDEST PUSH1 0x0 DUP6 ADD CALLDATALOAD PUSH8 0xFFFFFFFFFFFFFFFF DUP2 GT ISZERO PUSH2 0x15CB JUMPI PUSH2 0x15CA PUSH2 0x1075 JUMP JUMPDEST JUMPDEST PUSH2 0x15D7 DUP8 DUP3 DUP9 ADD PUSH2 0x124D JUMP JUMPDEST SWAP5 POP POP PUSH1 0x20 DUP6 ADD CALLDATALOAD PUSH8 0xFFFFFFFFFFFFFFFF DUP2 GT ISZERO PUSH2 0x15F8 JUMPI PUSH2 0x15F7 PUSH2 0x1075 JUMP JUMPDEST JUMPDEST PUSH2 0x1604 DUP8 DUP3 DUP9 ADD PUSH2 0x124D JUMP JUMPDEST SWAP4 POP POP PUSH1 0x40 PUSH2 0x1615 DUP8 DUP3 DUP9 ADD PUSH2 0x129C JUMP JUMPDEST SWAP3 POP POP PUSH1 0x60 PUSH2 0x1626 DUP8 DUP3 DUP9 ADD PUSH2 0x12D2 JUMP JUMPDEST SWAP2 POP POP SWAP3 SWAP6 SWAP2 SWAP5 POP SWAP3 POP JUMP JUMPDEST PUSH1 0x0 DUP1 PUSH1 0x0 DUP1 PUSH1 0x0 DUP1 PUSH1 0x0 PUSH1 0xE0 DUP9 DUP11 SUB SLT ISZERO PUSH2 0x1651 JUMPI PUSH2 0x1650 PUSH2 0x1070 JUMP JUMPDEST JUMPDEST PUSH1 0x0 DUP9 ADD CALLDATALOAD PUSH8 0xFFFFFFFFFFFFFFFF DUP2 GT ISZERO PUSH2 0x166F JUMPI PUSH2 0x166E PUSH2 0x1075 JUMP JUMPDEST JUMPDEST PUSH2 0x167B DUP11 DUP3 DUP12 ADD PUSH2 0x124D JUMP JUMPDEST SWAP8 POP POP PUSH1 0x20 DUP9 ADD CALLDATALOAD PUSH8 0xFFFFFFFFFFFFFFFF DUP2 GT ISZERO PUSH2 0x169C JUMPI PUSH2 0x169B PUSH2 0x1075 JUMP JUMPDEST JUMPDEST PUSH2 0x16A8 DUP11 DUP3 DUP12 ADD PUSH2 0x124D JUMP JUMPDEST SWAP7 POP POP PUSH1 0x40 DUP9 ADD CALLDATALOAD PUSH8 0xFFFFFFFFFFFFFFFF DUP2 GT ISZERO PUSH2 0x16C9 JUMPI PUSH2 0x16C8 PUSH2 0x1075 JUMP JUMPDEST JUMPDEST PUSH2 0x16D5 DUP11 DUP3 DUP12 ADD PUSH2 0x124D JUMP JUMPDEST SWAP6 POP POP PUSH1 0x60 DUP9 ADD CALLDATALOAD PUSH8 0xFFFFFFFFFFFFFFFF DUP2 GT ISZERO PUSH2 0x16F6 JUMPI PUSH2 0x16F5 PUSH2 0x1075 JUMP JUMPDEST JUMPDEST PUSH2 0x1702 DUP11 DUP3 DUP12 ADD PUSH2 0x124D JUMP JUMPDEST SWAP5 POP POP PUSH1 0x80 PUSH2 0x1713 DUP11 DUP3 DUP12 ADD PUSH2 0x129C JUMP JUMPDEST SWAP4 POP POP PUSH1 0xA0 PUSH2 0x1724 DUP11 DUP3 DUP12 ADD PUSH2 0x129C JUMP JUMPDEST SWAP3 POP POP PUSH1 0xC0 PUSH2 0x1735 DUP11 DUP3 DUP12 ADD PUSH2 0x129C JUMP JUMPDEST SWAP2 POP POP SWAP3 SWAP6 SWAP9 SWAP2 SWAP5 SWAP8 POP SWAP3 SWAP6 POP JUMP JUMPDEST PUSH1 0x0 DUP1 PUSH1 0x0 DUP1 PUSH1 0x0 PUSH1 0xA0 DUP7 DUP9 SUB SLT ISZERO PUSH2 0x1760 JUMPI PUSH2 0x175F PUSH2 0x1070 JUMP JUMPDEST JUMPDEST PUSH1 0x0 DUP7 ADD CALLDATALOAD PUSH8 0xFFFFFFFFFFFFFFFF DUP2 GT ISZERO PUSH2 0x177E JUMPI PUSH2 0x177D PUSH2 0x1075 JUMP JUMPDEST JUMPDEST PUSH2 0x178A DUP9 DUP3 DUP10 ADD PUSH2 0x124D JUMP JUMPDEST SWAP6 POP POP PUSH1 0x20 DUP7 ADD CALLDATALOAD PUSH8 0xFFFFFFFFFFFFFFFF DUP2 GT ISZERO PUSH2 0x17AB JUMPI PUSH2 0x17AA PUSH2 0x1075 JUMP JUMPDEST JUMPDEST PUSH2 0x17B7 DUP9 DUP3 DUP10 ADD PUSH2 0x124D JUMP JUMPDEST SWAP5 POP POP PUSH1 0x40 PUSH2 0x17C8 DUP9 DUP3 DUP10 ADD PUSH2 0x129C JUMP JUMPDEST SWAP4 POP POP PUSH1 0x60 PUSH2 0x17D9 DUP9 DUP3 DUP10 ADD PUSH2 0x129C JUMP JUMPDEST SWAP3 POP POP PUSH1 0x80 DUP7 ADD CALLDATALOAD PUSH8 0xFFFFFFFFFFFFFFFF DUP2 GT ISZERO PUSH2 0x17FA JUMPI PUSH2 0x17F9 PUSH2 0x1075 JUMP JUMPDEST JUMPDEST PUSH2 0x1806 DUP9 DUP3 DUP10 ADD PUSH2 0x124D JUMP JUMPDEST SWAP2 POP POP SWAP3 SWAP6 POP SWAP3 SWAP6 SWAP1 SWAP4 POP JUMP JUMPDEST PUSH1 0x0 DUP1 PUSH1 0x0 DUP1 PUSH1 0x80 DUP6 DUP8 SUB SLT ISZERO PUSH2 0x182D JUMPI PUSH2 0x182C PUSH2 0x1070 JUMP JUMPDEST JUMPDEST PUSH1 0x0 DUP6 ADD CALLDATALOAD PUSH8 0xFFFFFFFFFFFFFFFF DUP2 GT ISZERO PUSH2 0x184B JUMPI PUSH2 0x184A PUSH2 0x1075 JUMP JUMPDEST JUMPDEST PUSH2 0x1857 DUP8 DUP3 DUP9 ADD PUSH2 0x124D JUMP JUMPDEST SWAP5 POP POP PUSH1 0x20 DUP6 ADD CALLDATALOAD PUSH8 0xFFFFFFFFFFFFFFFF DUP2 GT ISZERO PUSH2 0x1878 JUMPI PUSH2 0x1877 PUSH2 0x1075 JUMP JUMPDEST JUMPDEST PUSH2 0x1884 DUP8 DUP3 DUP9 ADD PUSH2 0x124D JUMP JUMPDEST SWAP4 POP POP PUSH1 0x40 DUP6 ADD CALLDATALOAD PUSH8 0xFFFFFFFFFFFFFFFF DUP2 GT ISZERO PUSH2 0x18A5 JUMPI PUSH2 0x18A4 PUSH2 0x1075 JUMP JUMPDEST JUMPDEST PUSH2 0x18B1 DUP8 DUP3 DUP9 ADD PUSH2 0x124D JUMP JUMPDEST SWAP3 POP POP PUSH1 0x60 PUSH2 0x18C2 DUP8 DUP3 DUP9 ADD PUSH2 0x12D2 JUMP JUMPDEST SWAP2 POP POP SWAP3 SWAP6 SWAP2 SWAP5 POP SWAP3 POP JUMP JUMPDEST PUSH1 0x0 DUP3 DUP3 MSTORE PUSH1 0x20 DUP3 ADD SWAP1 POP SWAP3 SWAP2 POP POP JUMP JUMPDEST PUSH32 0x43616C6C6572206D7573742062652047504F206F722076656E646F7200000000 PUSH1 0x0 DUP3 ADD MSTORE POP JUMP JUMPDEST PUSH1 0x0 PUSH2 0x1915 PUSH1 0x1C DUP4 PUSH2 0x18CE JUMP JUMPDEST SWAP2 POP PUSH2 0x1920 DUP3 PUSH2 0x18DF JUMP JUMPDEST PUSH1 0x20 DUP3 ADD SWAP1 POP SWAP2 SWAP1 POP JUMP JUMPDEST PUSH1 0x0 PUSH1 0x20 DUP3 ADD SWAP1 POP DUP2 DUP2 SUB PUSH1 0x0 DUP4 ADD MSTORE PUSH2 0x1944 DUP2 PUSH2 0x1908 JUMP JUMPDEST SWAP1 POP SWAP2 SWAP1 POP JUMP JUMPDEST PUSH1 0x0 DUP2 MLOAD SWAP1 POP SWAP2 SWAP1 POP JUMP JUMPDEST PUSH1 0x0 DUP3 DUP3 MSTORE PUSH1 0x20 DUP3 ADD SWAP1 POP SWAP3 SWAP2 POP POP JUMP JUMPDEST PUSH1 0x0 JUMPDEST DUP4 DUP2 LT ISZERO PUSH2 0x1985 JUMPI DUP1 DUP3 ADD MLOAD DUP2 DUP5 ADD MSTORE PUSH1 0x20 DUP2 ADD SWAP1 POP PUSH2 0x196A JUMP JUMPDEST PUSH1 0x0 DUP5 DUP5 ADD MSTORE POP POP POP POP JUMP JUMPDEST PUSH1 0x0 PUSH2 0x199C DUP3 PUSH2 0x194B JUMP JUMPDEST PUSH2 0x19A6 DUP2 DUP6 PUSH2 0x1956 JUMP JUMPDEST SWAP4 POP PUSH2 0x19B6 DUP2 DUP6 PUSH1 0x20 DUP7 ADD PUSH2 0x1967 JUMP JUMPDEST PUSH2 0x19BF DUP2 PUSH2 0x113F JUMP JUMPDEST DUP5 ADD SWAP2 POP POP SWAP3 SWAP2 POP POP JUMP JUMPDEST PUSH2 0x19D3 DUP2 PUSH2 0x127B JUMP JUMPDEST DUP3 MSTORE POP POP JUMP JUMPDEST PUSH2 0x19E2 DUP2 PUSH2 0x12B1 JUMP JUMPDEST DUP3 MSTORE POP POP JUMP JUMPDEST PUSH1 0x0 PUSH1 0xE0 DUP4 ADD PUSH1 0x0 DUP4 ADD MLOAD DUP5 DUP3 SUB PUSH1 0x0 DUP7 ADD MSTORE PUSH2 0x1A05 DUP3 DUP3 PUSH2 0x1991 JUMP JUMPDEST SWAP2 POP POP PUSH1 0x20 DUP4 ADD MLOAD DUP5 DUP3 SUB PUSH1 0x20 DUP7 ADD MSTORE PUSH2 0x1A1F DUP3 DUP3 PUSH2 0x1991 JUMP JUMPDEST SWAP2 POP POP PUSH1 0x40 DUP4 ADD MLOAD DUP5 DUP3 SUB PUSH1 0x40 DUP7 ADD MSTORE PUSH2 0x1A39 DUP3 DUP3 PUSH2 0x1991 JUMP JUMPDEST SWAP2 POP POP PUSH1 0x60 DUP4 ADD MLOAD PUSH2 0x1A4E PUSH1 0x60 DUP7 ADD DUP3 PUSH2 0x19CA JUMP JUMPDEST POP PUSH1 0x80 DUP4 ADD MLOAD DUP5 DUP3 SUB PUSH1 0x80 DUP7 ADD MSTORE PUSH2 0x1A66 DUP3 DUP3 PUSH2 0x1991 JUMP JUMPDEST SWAP2 POP POP PUSH1 0xA0 DUP4 ADD MLOAD DUP5 DUP3 SUB PUSH1 0xA0 DUP7 ADD MSTORE PUSH2 0x1A80 DUP3 DUP3 PUSH2 0x1991 JUMP JUMPDEST SWAP2 POP POP PUSH1 0xC0 DUP4 ADD MLOAD PUSH2 0x1A95 PUSH1 0xC0 DUP7 ADD DUP3 PUSH2 0x19D9 JUMP JUMPDEST POP DUP1 SWAP2 POP POP SWAP3 SWAP2 POP POP JUMP JUMPDEST PUSH1 0x0 PUSH1 0x20 DUP3 ADD SWAP1 POP DUP2 DUP2 SUB PUSH1 0x0 DUP4 ADD MSTORE PUSH2 0x1ABA DUP2 DUP5 PUSH2 0x19E8 JUMP JUMPDEST SWAP1 POP SWAP3 SWAP2 POP POP JUMP JUMPDEST PUSH32 0x43616C6C6572206973206E6F7420612047504F00000000000000000000000000 PUSH1 0x0 DUP3 ADD MSTORE POP JUMP JUMPDEST PUSH1 0x0 PUSH2 0x1AF8 PUSH1 0x13 DUP4 PUSH2 0x18CE JUMP JUMPDEST SWAP2 POP PUSH2 0x1B03 DUP3 PUSH2 0x1AC2 JUMP JUMPDEST PUSH1 0x20 DUP3 ADD SWAP1 POP SWAP2 SWAP1 POP JUMP JUMPDEST PUSH1 0x0 PUSH1 0x20 DUP3 ADD SWAP1 POP DUP2 DUP2 SUB PUSH1 0x0 DUP4 ADD MSTORE PUSH2 0x1B27 DUP2 PUSH2 0x1AEB JUMP JUMPDEST SWAP1 POP SWAP2 SWAP1 POP JUMP JUMPDEST PUSH1 0x0 PUSH2 0x1B39 DUP3 PUSH2 0x194B JUMP JUMPDEST PUSH2 0x1B43 DUP2 DUP6 PUSH2 0x18CE JUMP JUMPDEST SWAP4 POP PUSH2 0x1B53 DUP2 DUP6 PUSH1 0x20 DUP7 ADD PUSH2 0x1967 JUMP JUMPDEST PUSH2 0x1B5C DUP2 PUSH2 0x113F JUMP JUMPDEST DUP5 ADD SWAP2 POP POP SWAP3 SWAP2 POP POP JUMP JUMPDEST PUSH2 0x1B70 DUP2 PUSH2 0x127B JUMP JUMPDEST DUP3 MSTORE POP POP JUMP JUMPDEST PUSH1 0x0 PUSH1 0x60 DUP3 ADD SWAP1 POP DUP2 DUP2 SUB PUSH1 0x0 DUP4 ADD MSTORE PUSH2 0x1B90 DUP2 DUP7 PUSH2 0x1B2E JUMP JUMPDEST SWAP1 POP PUSH2 0x1B9F PUSH1 0x20 DUP4 ADD DUP6 PUSH2 0x1B67 JUMP JUMPDEST PUSH2 0x1BAC PUSH1 0x40 DUP4 ADD DUP5 PUSH2 0x1B67 JUMP JUMPDEST SWAP5 SWAP4 POP POP POP POP JUMP JUMPDEST PUSH1 0x0 PUSH1 0xA0 DUP3 ADD SWAP1 POP DUP2 DUP2 SUB PUSH1 0x0 DUP4 ADD MSTORE PUSH2 0x1BCE DUP2 DUP9 PUSH2 0x1B2E JUMP JUMPDEST SWAP1 POP DUP2 DUP2 SUB PUSH1 0x20 DUP4 ADD MSTORE PUSH2 0x1BE2 DUP2 DUP8 PUSH2 0x1B2E JUMP JUMPDEST SWAP1 POP PUSH2 0x1BF1 PUSH1 0x40 DUP4 ADD DUP7 PUSH2 0x1B67 JUMP JUMPDEST PUSH2 0x1BFE PUSH1 0x60 DUP4 ADD DUP6 PUSH2 0x1B67 JUMP JUMPDEST PUSH2 0x1C0B PUSH1 0x80 DUP4 ADD DUP5 PUSH2 0x1442 JUMP JUMPDEST SWAP7 SWAP6 POP POP POP POP POP POP JUMP JUMPDEST PUSH1 0x0 PUSH2 0x100 DUP4 ADD PUSH1 0x0 DUP4 ADD MLOAD DUP5 DUP3 SUB PUSH1 0x0 DUP7 ADD MSTORE PUSH2 0x1C33 DUP3 DUP3 PUSH2 0x1991 JUMP JUMPDEST SWAP2 POP POP PUSH1 0x20 DUP4 ADD MLOAD DUP5 DUP3 SUB PUSH1 0x20 DUP7 ADD MSTORE PUSH2 0x1C4D DUP3 DUP3 PUSH2 0x1991 JUMP JUMPDEST SWAP2 POP POP PUSH1 0x40 DUP4 ADD MLOAD DUP5 DUP3 SUB PUSH1 0x40 DUP7 ADD MSTORE PUSH2 0x1C67 DUP3 DUP3 PUSH2 0x1991 JUMP JUMPDEST SWAP2 POP POP PUSH1 0x60 DUP4 ADD MLOAD DUP5 DUP3 SUB PUSH1 0x60 DUP7 ADD MSTORE PUSH2 0x1C81 DUP3 DUP3 PUSH2 0x1991 JUMP JUMPDEST SWAP2 POP POP PUSH1 0x80 DUP4 ADD MLOAD PUSH2 0x1C96 PUSH1 0x80 DUP7 ADD DUP3 PUSH2 0x19CA JUMP JUMPDEST POP PUSH1 0xA0 DUP4 ADD MLOAD PUSH2 0x1CA9 PUSH1 0xA0 DUP7 ADD DUP3 PUSH2 0x19CA JUMP JUMPDEST POP PUSH1 0xC0 DUP4 ADD MLOAD PUSH2 0x1CBC PUSH1 0xC0 DUP7 ADD DUP3 PUSH2 0x19CA JUMP JUMPDEST POP PUSH1 0xE0 DUP4 ADD MLOAD PUSH2 0x1CCF PUSH1 0xE0 DUP7 ADD DUP3 PUSH2 0x19CA JUMP JUMPDEST POP DUP1 SWAP2 POP POP SWAP3 SWAP2 POP POP JUMP JUMPDEST PUSH1 0x0 PUSH1 0x20 DUP3 ADD SWAP1 POP DUP2 DUP2 SUB PUSH1 0x0 DUP4 ADD MSTORE PUSH2 0x1CF4 DUP2 DUP5 PUSH2 0x1C15 JUMP JUMPDEST SWAP1 POP SWAP3 SWAP2 POP POP JUMP JUMPDEST PUSH1 0x0 PUSH1 0xA0 DUP4 ADD PUSH1 0x0 DUP4 ADD MLOAD DUP5 DUP3 SUB PUSH1 0x0 DUP7 ADD MSTORE PUSH2 0x1D19 DUP3 DUP3 PUSH2 0x1991 JUMP JUMPDEST SWAP2 POP POP PUSH1 0x20 DUP4 ADD MLOAD DUP5 DUP3 SUB PUSH1 0x20 DUP7 ADD MSTORE PUSH2 0x1D33 DUP3 DUP3 PUSH2 0x1991 JUMP JUMPDEST SWAP2 POP POP PUSH1 0x40 DUP4 ADD MLOAD PUSH2 0x1D48 PUSH1 0x40 DUP7 ADD DUP3 PUSH2 0x19CA JUMP JUMPDEST POP PUSH1 0x60 DUP4 ADD MLOAD PUSH2 0x1D5B PUSH1 0x60 DUP7 ADD DUP3 PUSH2 0x19CA JUMP JUMPDEST POP PUSH1 0x80 DUP4 ADD MLOAD DUP5 DUP3 SUB PUSH1 0x80 DUP7 ADD MSTORE PUSH2 0x1D73 DUP3 DUP3 PUSH2 0x1991 JUMP JUMPDEST SWAP2 POP POP DUP1 SWAP2 POP POP SWAP3 SWAP2 POP POP JUMP JUMPDEST PUSH1 0x0 PUSH1 0x20 DUP3 ADD SWAP1 POP DUP2 DUP2 SUB PUSH1 0x0 DUP4 ADD MSTORE PUSH2 0x1D9A DUP2 DUP5 PUSH2 0x1CFC JUMP JUMPDEST SWAP1 POP SWAP3 SWAP2 POP POP JUMP JUMPDEST PUSH32 0x43616C6C6572206973206E6F7420612076656E646F7200000000000000000000 PUSH1 0x0 DUP3 ADD MSTORE POP JUMP JUMPDEST PUSH1 0x0 PUSH2 0x1DD8 PUSH1 0x16 DUP4 PUSH2 0x18CE JUMP JUMPDEST SWAP2 POP PUSH2 0x1DE3 DUP3 PUSH2 0x1DA2 JUMP JUMPDEST PUSH1 0x20 DUP3 ADD SWAP1 POP SWAP2 SWAP1 POP JUMP JUMPDEST PUSH1 0x0 PUSH1 0x20 DUP3 ADD SWAP1 POP DUP2 DUP2 SUB PUSH1 0x0 DUP4 ADD MSTORE PUSH2 0x1E07 DUP2 PUSH2 0x1DCB JUMP JUMPDEST SWAP1 POP SWAP2 SWAP1 POP JUMP JUMPDEST PUSH1 0x0 PUSH1 0xA0 DUP4 ADD PUSH1 0x0 DUP4 ADD MLOAD DUP5 DUP3 SUB PUSH1 0x0 DUP7 ADD MSTORE PUSH2 0x1E2B DUP3 DUP3 PUSH2 0x1991 JUMP JUMPDEST SWAP2 POP POP PUSH1 0x20 DUP4 ADD MLOAD DUP5 DUP3 SUB PUSH1 0x20 DUP7 ADD MSTORE PUSH2 0x1E45 DUP3 DUP3 PUSH2 0x1991 JUMP JUMPDEST SWAP2 POP POP PUSH1 0x40 DUP4 ADD MLOAD DUP5 DUP3 SUB PUSH1 0x40 DUP7 ADD MSTORE PUSH2 0x1E5F DUP3 DUP3 PUSH2 0x1991 JUMP JUMPDEST SWAP2 POP POP PUSH1 0x60 DUP4 ADD MLOAD PUSH2 0x1E74 PUSH1 0x60 DUP7 ADD DUP3 PUSH2 0x19CA JUMP JUMPDEST POP PUSH1 0x80 DUP4 ADD MLOAD PUSH2 0x1E87 PUSH1 0x80 DUP7 ADD DUP3 PUSH2 0x19D9 JUMP JUMPDEST POP DUP1 SWAP2 POP POP SWAP3 SWAP2 POP POP JUMP JUMPDEST PUSH1 0x0 PUSH1 0x20 DUP3 ADD SWAP1 POP DUP2 DUP2 SUB PUSH1 0x0 DUP4 ADD MSTORE PUSH2 0x1EAC DUP2 DUP5 PUSH2 0x1E0E JUMP JUMPDEST SWAP1 POP SWAP3 SWAP2 POP POP JUMP JUMPDEST PUSH2 0x1EBD DUP2 PUSH2 0x148C JUMP JUMPDEST DUP3 MSTORE POP POP JUMP JUMPDEST PUSH1 0x0 PUSH1 0x20 DUP3 ADD SWAP1 POP PUSH2 0x1ED8 PUSH1 0x0 DUP4 ADD DUP5 PUSH2 0x1EB4 JUMP JUMPDEST SWAP3 SWAP2 POP POP JUMP JUMPDEST PUSH1 0x0 PUSH1 0x40 DUP3 ADD SWAP1 POP PUSH2 0x1EF3 PUSH1 0x0 DUP4 ADD DUP6 PUSH2 0x1EB4 JUMP JUMPDEST PUSH2 0x1F00 PUSH1 0x20 DUP4 ADD DUP5 PUSH2 0x1442 JUMP JUMPDEST SWAP4 SWAP3 POP POP POP JUMP INVALID LOG2 PUSH5 0x6970667358 0x22 SLT KECCAK256 0xAE DUP5 CALLDATALOAD 0xBC CALLVALUE EXTCODECOPY GASPRICE 0xD1 CALLER DELEGATECALL SWAP8 PUSH18 0xA22E72ED0FC781B43856FBF511AF9DF2378B DUP6 PUSH26 0x64736F6C63430008140033000000000000000000000000000000 "},"methodIdentifiers":{"DEFAULT_ADMIN_ROLE()":"a217fddf","GPO_ROLE()":"e938e1d2","VENDOR_ROLE()":"926a694d","addGPO(address)":"3ba26878","addVendor(address)":"45e0f753","getRoleAdmin(bytes32)":"248a9ca3","grantRole(bytes32,address)":"2f2ff15d","hasRole(bytes32,address)":"91d14854","logBidEvaluation(string,string,uint256,bytes32)":"61f5f8dc","logBidSubmission(string,string,string,bytes32)":"9afbcb9c","logContractAward(string,string,string,string,uint256,uint256,uint256)":"668645ca","logMilestoneCreation(string,string,string,uint256,string,string,bytes32)":"940ed80d","logMilestoneUpdate(string,string,string,uint256,string,string,bytes32)":"0536d148","logRfpCreation(string,string,uint256,uint256,string)":"73ea210a","logRfpPublication(string,uint256)":"4bcefde8","pause()":"8456cb59","paused()":"5c975abb","renounceRole(bytes32,address)":"36568abe","revokeRole(bytes32,address)":"d547741f","supportsInterface(bytes4)":"01ffc9a7","unpause()":"3f4ba83a"}}}}}