{"contracts/ProcurementLog.sol":{"ProcurementLog":{"abi":[{"inputs":[],"stateMutability":"nonpayable","type":"constructor"},{"inputs":[],"name":"EnforcedPause","type":"error"},{"inputs":[],"name":"ExpectedPause","type":"error"},{"inputs":[{"internalType":"address","name":"owner","type":"address"}],"name":"OwnableInvalidOwner","type":"error"},{"inputs":[{"internalType":"address","name":"account","type":"address"}],"name":"OwnableUnauthorizedAccount","type":"error"},{"anonymous":false,"inputs":[{"indexed":false,"internalType":"string","name":"bidId","type":"string"},{"indexed":false,"internalType":"string","name":"rfpId","type":"string"},{"indexed":false,"internalType":"uint256","name":"evaluationScore","type":"uint256"},{"indexed":false,"internalType":"uint256","name":"evaluationDate","type":"uint256"},{"indexed":false,"internalType":"bytes32","name":"evaluationHash","type":"bytes32"}],"name":"BidEvaluated","type":"event"},{"anonymous":false,"inputs":[{"components":[{"internalType":"string","name":"bidId","type":"string"},{"internalType":"string","name":"rfpId","type":"string"},{"internalType":"string","name":"vendorId","type":"string"},{"internalType":"uint256","name":"submissionDate","type":"uint256"},{"internalType":"bytes32","name":"proposalHash","type":"bytes32"}],"indexed":false,"internalType":"struct ProcurementLog.BidData","name":"data","type":"tuple"}],"name":"BidSubmitted","type":"event"},{"anonymous":false,"inputs":[{"components":[{"internalType":"string","name":"contractId","type":"string"},{"internalType":"string","name":"rfpId","type":"string"},{"internalType":"string","name":"vendorId","type":"string"},{"internalType":"string","name":"bidId","type":"string"},{"internalType":"uint256","name":"awardDate","type":"uint256"},{"internalType":"uint256","name":"totalValue","type":"uint256"},{"internalType":"uint256","name":"startDate","type":"uint256"},{"internalType":"uint256","name":"endDate","type":"uint256"}],"indexed":false,"internalType":"struct ProcurementLog.ContractData","name":"data","type":"tuple"}],"name":"ContractAwarded","type":"event"},{"anonymous":false,"inputs":[{"components":[{"internalType":"string","name":"milestoneId","type":"string"},{"internalType":"string","name":"contractId","type":"string"},{"internalType":"string","name":"title","type":"string"},{"internalType":"uint256","name":"dueDate","type":"uint256"},{"internalType":"string","name":"status","type":"string"},{"internalType":"string","name":"updatedBy","type":"string"},{"internalType":"bytes32","name":"detailsHash","type":"bytes32"}],"indexed":false,"internalType":"struct ProcurementLog.MilestoneData","name":"data","type":"tuple"}],"name":"MilestoneCreated","type":"event"},{"anonymous":false,"inputs":[{"components":[{"internalType":"string","name":"milestoneId","type":"string"},{"internalType":"string","name":"contractId","type":"string"},{"internalType":"string","name":"title","type":"string"},{"internalType":"uint256","name":"dueDate","type":"uint256"},{"internalType":"string","name":"status","type":"string"},{"internalType":"string","name":"updatedBy","type":"string"},{"internalType":"bytes32","name":"detailsHash","type":"bytes32"}],"indexed":false,"internalType":"struct ProcurementLog.MilestoneData","name":"data","type":"tuple"}],"name":"MilestoneUpdated","type":"event"},{"anonymous":false,"inputs":[{"indexed":true,"internalType":"address","name":"previousOwner","type":"address"},{"indexed":true,"internalType":"address","name":"newOwner","type":"address"}],"name":"OwnershipTransferred","type":"event"},{"anonymous":false,"inputs":[{"indexed":false,"internalType":"address","name":"account","type":"address"}],"name":"Paused","type":"event"},{"anonymous":false,"inputs":[{"components":[{"internalType":"string","name":"rfpId","type":"string"},{"internalType":"string","name":"title","type":"string"},{"internalType":"uint256","name":"budget","type":"uint256"},{"internalType":"uint256","name":"submissionDeadline","type":"uint256"},{"internalType":"string","name":"createdBy","type":"string"}],"indexed":false,"internalType":"struct ProcurementLog.RfpData","name":"data","type":"tuple"}],"name":"RfpCreated","type":"event"},{"anonymous":false,"inputs":[{"indexed":false,"internalType":"string","name":"rfpId","type":"string"},{"indexed":false,"internalType":"uint256","name":"publishDate","type":"uint256"},{"indexed":false,"internalType":"uint256","name":"numberOfBidsAllowed","type":"uint256"}],"name":"RfpPublished","type":"event"},{"anonymous":false,"inputs":[{"indexed":false,"internalType":"address","name":"account","type":"address"}],"name":"Unpaused","type":"event"},{"inputs":[{"internalType":"string","name":"bidId","type":"string"},{"internalType":"string","name":"rfpId","type":"string"},{"internalType":"uint256","name":"evaluationScore","type":"uint256"},{"internalType":"bytes32","name":"evaluationHash","type":"bytes32"}],"name":"logBidEvaluation","outputs":[],"stateMutability":"nonpayable","type":"function"},{"inputs":[{"internalType":"string","name":"bidId","type":"string"},{"internalType":"string","name":"rfpId","type":"string"},{"internalType":"string","name":"vendorId","type":"string"},{"internalType":"bytes32","name":"proposalHash","type":"bytes32"}],"name":"logBidSubmission","outputs":[],"stateMutability":"nonpayable","type":"function"},{"inputs":[{"internalType":"string","name":"contractId","type":"string"},{"internalType":"string","name":"rfpId","type":"string"},{"internalType":"string","name":"vendorId","type":"string"},{"internalType":"string","name":"bidId","type":"string"},{"internalType":"uint256","name":"totalValue","type":"uint256"},{"internalType":"uint256","name":"startDate","type":"uint256"},{"internalType":"uint256","name":"endDate","type":"uint256"}],"name":"logContractAward","outputs":[],"stateMutability":"nonpayable","type":"function"},{"inputs":[{"internalType":"string","name":"milestoneId","type":"string"},{"internalType":"string","name":"contractId","type":"string"},{"internalType":"string","name":"title","type":"string"},{"internalType":"uint256","name":"dueDate","type":"uint256"},{"internalType":"string","name":"status","type":"string"},{"internalType":"string","name":"updatedBy","type":"string"},{"internalType":"bytes32","name":"detailsHash","type":"bytes32"}],"name":"logMilestoneCreation","outputs":[],"stateMutability":"nonpayable","type":"function"},{"inputs":[{"internalType":"string","name":"milestoneId","type":"string"},{"internalType":"string","name":"contractId","type":"string"},{"internalType":"string","name":"title","type":"string"},{"internalType":"uint256","name":"dueDate","type":"uint256"},{"internalType":"string","name":"status","type":"string"},{"internalType":"string","name":"updatedBy","type":"string"},{"internalType":"bytes32","name":"detailsHash","type":"bytes32"}],"name":"logMilestoneUpdate","outputs":[],"stateMutability":"nonpayable","type":"function"},{"inputs":[{"internalType":"string","name":"rfpId","type":"string"},{"internalType":"string","name":"title","type":"string"},{"internalType":"uint256","name":"budget","type":"uint256"},{"internalType":"uint256","name":"submissionDeadline","type":"uint256"},{"internalType":"string","name":"createdBy","type":"string"}],"name":"logRfpCreation","outputs":[],"stateMutability":"nonpayable","type":"function"},{"inputs":[{"internalType":"string","name":"rfpId","type":"string"},{"internalType":"uint256","name":"numberOfBidsAllowed","type":"uint256"}],"name":"logRfpPublication","outputs":[],"stateMutability":"nonpayable","type":"function"},{"inputs":[],"name":"owner","outputs":[{"internalType":"address","name":"","type":"address"}],"stateMutability":"view","type":"function"},{"inputs":[],"name":"pause","outputs":[],"stateMutability":"nonpayable","type":"function"},{"inputs":[],"name":"paused","outputs":[{"internalType":"bool","name":"","type":"bool"}],"stateMutability":"view","type":"function"},{"inputs":[],"name":"renounceOwnership","outputs":[],"stateMutability":"nonpayable","type":"function"},{"inputs":[{"internalType":"address","name":"newOwner","type":"address"}],"name":"transferOwnership","outputs":[],"stateMutability":"nonpayable","type":"function"},{"inputs":[],"name":"unpause","outputs":[],"stateMutability":"nonpayable","type":"function"}],"evm":{"bytecode":{"linkReferences":{},"object":"608060405234801561001057600080fd5b50338061003757604051631e4fbdf760e01b81526000600482015260240160405180910390fd5b61004081610053565b506000805460ff60a01b191690556100a3565b600080546001600160a01b038381166001600160a01b0319831681178455604051919092169283917f8be0079c531659141344cd1fd0a4f28419497f9722a3daafe3b4186f6b6457e09190a35050565b610e24806100b26000396000f3fe608060405234801561001057600080fd5b50600436106100cf5760003560e01c8063715018a61161008c5780638da5cb5b116100665780638da5cb5b1461016f578063940ed80d1461018a5780639afbcb9c1461019d578063f2fde38b146101b057600080fd5b8063715018a61461014c57806373ea210a146101545780638456cb591461016757600080fd5b80630536d148146100d45780633f4ba83a146100e95780634bcefde8146100f15780635c975abb1461010457806361f5f8dc14610126578063668645ca14610139575b600080fd5b6100e76100e236600461072f565b6101c3565b005b6100e7610245565b6100e76100ff366004610814565b610257565b600054600160a01b900460ff1660405190151581526020015b60405180910390f35b6100e7610134366004610859565b6102a6565b6100e76101473660046108cd565b6102fb565b6100e7610373565b6100e7610162366004610995565b610385565b6100e76103f9565b6000546040516001600160a01b03909116815260200161011d565b6100e761019836600461072f565b610409565b6100e76101ab366004610a31565b61047a565b6100e76101be366004610ac1565b6104df565b6101cb610522565b6101d361054f565b7f433f13d5f497f41f2eebd5fc871f856e948119ae355a1063579df62260c709486040518060e00160405280898152602001888152602001878152602001868152602001858152602001848152602001838152506040516102349190610b37565b60405180910390a150505050505050565b61024d610522565b61025561057a565b565b61025f610522565b61026761054f565b7fe00df2265ba0bd3ee4434659ce8e386a2224d5b8c7d0c524f2d78a1f5c6fcee082428360405161029a93929190610beb565b60405180910390a15050565b6102ae610522565b6102b661054f565b7fa56ebe5d7e3acdc10a9b69b6ba2576578d0d5d1613721d339873b1be10f8b41484848442856040516102ed959493929190610c10565b60405180910390a150505050565b610303610522565b61030b61054f565b7f3ce2a1bd1c73a3eaca1d0d04e84187263b16de9fd795949adfe4089d4a6c46f9604051806101000160405280898152602001888152602001878152602001868152602001428152602001858152602001848152602001838152506040516102349190610c53565b61037b610522565b61025560006105cf565b61038d610522565b61039561054f565b7f48168058523bbc2191776b55eab1ca02f70b119425a731034a490e12293a3c806040518060a00160405280878152602001868152602001858152602001848152602001838152506040516103ea9190610d00565b60405180910390a15050505050565b610401610522565b61025561061f565b610411610522565b61041961054f565b7f029c37b66e4d2c6abe2a25add57da4cfc5932cd888f0250a81ff73f29f9545cb6040518060e00160405280898152602001888152602001878152602001868152602001858152602001848152602001838152506040516102349190610b37565b610482610522565b61048a61054f565b7f45911e8fe24bebfb305453ee8ddc04cb9ff9e150f6ef3764692bf06297a3a28c6040518060a00160405280868152602001858152602001848152602001428152602001838152506040516102ed9190610d75565b6104e7610522565b6001600160a01b03811661051657604051631e4fbdf760e01b8152600060048201526024015b60405180910390fd5b61051f816105cf565b50565b6000546001600160a01b031633146102555760405163118cdaa760e01b815233600482015260240161050d565b600054600160a01b900460ff16156102555760405163d93c066560e01b815260040160405180910390fd5b610582610662565b6000805460ff60a01b191690557f5db9ee0a495bf2e6ff9c91a7834c1ba4fdd244a5e8aa4e537bd38aeae4b073aa335b6040516001600160a01b03909116815260200160405180910390a1565b600080546001600160a01b038381166001600160a01b0319831681178455604051919092169283917f8be0079c531659141344cd1fd0a4f28419497f9722a3daafe3b4186f6b6457e09190a35050565b61062761054f565b6000805460ff60a01b1916600160a01b1790557f62e78cea01bee320cd4e420270b5ea74000d11b0c9f74754ebdbfc544b05a2586105b23390565b600054600160a01b900460ff1661025557604051638dfc202b60e01b815260040160405180910390fd5b634e487b7160e01b600052604160045260246000fd5b600082601f8301126106b357600080fd5b813567ffffffffffffffff808211156106ce576106ce61068c565b604051601f8301601f19908116603f011681019082821181831017156106f6576106f661068c565b8160405283815286602085880101111561070f57600080fd5b836020870160208301376000602085830101528094505050505092915050565b600080600080600080600060e0888a03121561074a57600080fd5b873567ffffffffffffffff8082111561076257600080fd5b61076e8b838c016106a2565b985060208a013591508082111561078457600080fd5b6107908b838c016106a2565b975060408a01359150808211156107a657600080fd5b6107b28b838c016106a2565b965060608a0135955060808a01359150808211156107cf57600080fd5b6107db8b838c016106a2565b945060a08a01359150808211156107f157600080fd5b506107fe8a828b016106a2565b92505060c0880135905092959891949750929550565b6000806040838503121561082757600080fd5b823567ffffffffffffffff81111561083e57600080fd5b61084a858286016106a2565b95602094909401359450505050565b6000806000806080858703121561086f57600080fd5b843567ffffffffffffffff8082111561088757600080fd5b610893888389016106a2565b955060208701359150808211156108a957600080fd5b506108b6878288016106a2565b949794965050505060408301359260600135919050565b600080600080600080600060e0888a0312156108e857600080fd5b873567ffffffffffffffff8082111561090057600080fd5b61090c8b838c016106a2565b985060208a013591508082111561092257600080fd5b61092e8b838c016106a2565b975060408a013591508082111561094457600080fd5b6109508b838c016106a2565b965060608a013591508082111561096657600080fd5b506109738a828b016106a2565b979a969950949760808101359660a0820135965060c090910135945092505050565b600080600080600060a086880312156109ad57600080fd5b853567ffffffffffffffff808211156109c557600080fd5b6109d189838a016106a2565b965060208801359150808211156109e757600080fd5b6109f389838a016106a2565b955060408801359450606088013593506080880135915080821115610a1757600080fd5b50610a24888289016106a2565b9150509295509295909350565b60008060008060808587031215610a4757600080fd5b843567ffffffffffffffff80821115610a5f57600080fd5b610a6b888389016106a2565b95506020870135915080821115610a8157600080fd5b610a8d888389016106a2565b94506040870135915080821115610aa357600080fd5b50610ab0878288016106a2565b949793965093946060013593505050565b600060208284031215610ad357600080fd5b81356001600160a01b0381168114610aea57600080fd5b9392505050565b6000815180845260005b81811015610b1757602081850181015186830182015201610afb565b506000602082860101526020601f19601f83011685010191505092915050565b602081526000825160e06020840152610b54610100840182610af1565b90506020840151601f1980858403016040860152610b728383610af1565b92506040860151915080858403016060860152610b8f8383610af1565b92506060860151608086015260808601519150808584030160a0860152610bb68383610af1565b925060a08601519150808584030160c086015250610bd48282610af1565b91505060c084015160e08401528091505092915050565b606081526000610bfe6060830186610af1565b60208301949094525060400152919050565b60a081526000610c2360a0830188610af1565b8281036020840152610c358188610af1565b60408401969096525050606081019290925260809091015292915050565b6020815260008251610100806020850152610c72610120850183610af1565b91506020850151601f1980868503016040870152610c908483610af1565b93506040870151915080868503016060870152610cad8483610af1565b9350606087015191508086850301608087015250610ccb8382610af1565b925050608085015160a085015260a085015160c085015260c085015160e085015260e085015181850152508091505092915050565b602081526000825160a06020840152610d1c60c0840182610af1565b90506020840151601f1980858403016040860152610d3a8383610af1565b9250604086015160608601526060860151608086015260808601519150808584030160a086015250610d6c8282610af1565b95945050505050565b602081526000825160a06020840152610d9160c0840182610af1565b90506020840151601f1980858403016040860152610daf8383610af1565b9250604086015191508085840301606086015250610dcd8282610af1565b91505060608401516080840152608084015160a0840152809150509291505056fea2646970667358221220641501f7441e22840d87e546343d3a79241ce5d8e056d177ae70b442d5d9b28a64736f6c63430008140033","opcodes":"PUSH1 0x80 PUSH1 0x40 MSTORE CALLVALUE DUP1 ISZERO PUSH2 0x10 JUMPI PUSH1 0x0 DUP1 REVERT JUMPDEST POP CALLER DUP1 PUSH2 0x37 JUMPI PUSH1 0x40 MLOAD PUSH4 0x1E4FBDF7 PUSH1 0xE0 SHL DUP2 MSTORE PUSH1 0x0 PUSH1 0x4 DUP3 ADD MSTORE PUSH1 0x24 ADD PUSH1 0x40 MLOAD DUP1 SWAP2 SUB SWAP1 REVERT JUMPDEST PUSH2 0x40 DUP2 PUSH2 0x53 JUMP JUMPDEST POP PUSH1 0x0 DUP1 SLOAD PUSH1 0xFF PUSH1 0xA0 SHL NOT AND SWAP1 SSTORE PUSH2 0xA3 JUMP JUMPDEST PUSH1 0x0 DUP1 SLOAD PUSH1 0x1 PUSH1 0x1 PUSH1 0xA0 SHL SUB DUP4 DUP2 AND PUSH1 0x1 PUSH1 0x1 PUSH1 0xA0 SHL SUB NOT DUP4 AND DUP2 OR DUP5 SSTORE PUSH1 0x40 MLOAD SWAP2 SWAP1 SWAP3 AND SWAP3 DUP4 SWAP2 PUSH32 0x8BE0079C531659141344CD1FD0A4F28419497F9722A3DAAFE3B4186F6B6457E0 SWAP2 SWAP1 LOG3 POP POP JUMP JUMPDEST PUSH2 0xE24 DUP1 PUSH2 0xB2 PUSH1 0x0 CODECOPY PUSH1 0x0 RETURN INVALID PUSH1 0x80 PUSH1 0x40 MSTORE CALLVALUE DUP1 ISZERO PUSH2 0x10 JUMPI PUSH1 0x0 DUP1 REVERT JUMPDEST POP PUSH1 0x4 CALLDATASIZE LT PUSH2 0xCF JUMPI PUSH1 0x0 CALLDATALOAD PUSH1 0xE0 SHR DUP1 PUSH4 0x715018A6 GT PUSH2 0x8C JUMPI DUP1 PUSH4 0x8DA5CB5B GT PUSH2 0x66 JUMPI DUP1 PUSH4 0x8DA5CB5B EQ PUSH2 0x16F JUMPI DUP1 PUSH4 0x940ED80D EQ PUSH2 0x18A JUMPI DUP1 PUSH4 0x9AFBCB9C EQ PUSH2 0x19D JUMPI DUP1 PUSH4 0xF2FDE38B EQ PUSH2 0x1B0 JUMPI PUSH1 0x0 DUP1 REVERT JUMPDEST DUP1 PUSH4 0x715018A6 EQ PUSH2 0x14C JUMPI DUP1 PUSH4 0x73EA210A EQ PUSH2 0x154 JUMPI DUP1 PUSH4 0x8456CB59 EQ PUSH2 0x167 JUMPI PUSH1 0x0 DUP1 REVERT JUMPDEST DUP1 PUSH4 0x536D148 EQ PUSH2 0xD4 JUMPI DUP1 PUSH4 0x3F4BA83A EQ PUSH2 0xE9 JUMPI DUP1 PUSH4 0x4BCEFDE8 EQ PUSH2 0xF1 JUMPI DUP1 PUSH4 0x5C975ABB EQ PUSH2 0x104 JUMPI DUP1 PUSH4 0x61F5F8DC EQ PUSH2 0x126 JUMPI DUP1 PUSH4 0x668645CA EQ PUSH2 0x139 JUMPI JUMPDEST PUSH1 0x0 DUP1 REVERT JUMPDEST PUSH2 0xE7 PUSH2 0xE2 CALLDATASIZE PUSH1 0x4 PUSH2 0x72F JUMP JUMPDEST PUSH2 0x1C3 JUMP JUMPDEST STOP JUMPDEST PUSH2 0xE7 PUSH2 0x245 JUMP JUMPDEST PUSH2 0xE7 PUSH2 0xFF CALLDATASIZE PUSH1 0x4 PUSH2 0x814 JUMP JUMPDEST PUSH2 0x257 JUMP JUMPDEST PUSH1 0x0 SLOAD PUSH1 0x1 PUSH1 0xA0 SHL SWAP1 DIV PUSH1 0xFF AND PUSH1 0x40 MLOAD SWAP1 ISZERO ISZERO DUP2 MSTORE PUSH1 0x20 ADD JUMPDEST PUSH1 0x40 MLOAD DUP1 SWAP2 SUB SWAP1 RETURN JUMPDEST PUSH2 0xE7 PUSH2 0x134 CALLDATASIZE PUSH1 0x4 PUSH2 0x859 JUMP JUMPDEST PUSH2 0x2A6 JUMP JUMPDEST PUSH2 0xE7 PUSH2 0x147 CALLDATASIZE PUSH1 0x4 PUSH2 0x8CD JUMP JUMPDEST PUSH2 0x2FB JUMP JUMPDEST PUSH2 0xE7 PUSH2 0x373 JUMP JUMPDEST PUSH2 0xE7 PUSH2 0x162 CALLDATASIZE PUSH1 0x4 PUSH2 0x995 JUMP JUMPDEST PUSH2 0x385 JUMP JUMPDEST PUSH2 0xE7 PUSH2 0x3F9 JUMP JUMPDEST PUSH1 0x0 SLOAD PUSH1 0x40 MLOAD PUSH1 0x1 PUSH1 0x1 PUSH1 0xA0 SHL SUB SWAP1 SWAP2 AND DUP2 MSTORE PUSH1 0x20 ADD PUSH2 0x11D JUMP JUMPDEST PUSH2 0xE7 PUSH2 0x198 CALLDATASIZE PUSH1 0x4 PUSH2 0x72F JUMP JUMPDEST PUSH2 0x409 JUMP JUMPDEST PUSH2 0xE7 PUSH2 0x1AB CALLDATASIZE PUSH1 0x4 PUSH2 0xA31 JUMP JUMPDEST PUSH2 0x47A JUMP JUMPDEST PUSH2 0xE7 PUSH2 0x1BE CALLDATASIZE PUSH1 0x4 PUSH2 0xAC1 JUMP JUMPDEST PUSH2 0x4DF JUMP JUMPDEST PUSH2 0x1CB PUSH2 0x522 JUMP JUMPDEST PUSH2 0x1D3 PUSH2 0x54F JUMP JUMPDEST PUSH32 0x433F13D5F497F41F2EEBD5FC871F856E948119AE355A1063579DF62260C70948 PUSH1 0x40 MLOAD DUP1 PUSH1 0xE0 ADD PUSH1 0x40 MSTORE DUP1 DUP10 DUP2 MSTORE PUSH1 0x20 ADD DUP9 DUP2 MSTORE PUSH1 0x20 ADD DUP8 DUP2 MSTORE PUSH1 0x20 ADD DUP7 DUP2 MSTORE PUSH1 0x20 ADD DUP6 DUP2 MSTORE PUSH1 0x20 ADD DUP5 DUP2 MSTORE PUSH1 0x20 ADD DUP4 DUP2 MSTORE POP PUSH1 0x40 MLOAD PUSH2 0x234 SWAP2 SWAP1 PUSH2 0xB37 JUMP JUMPDEST PUSH1 0x40 MLOAD DUP1 SWAP2 SUB SWAP1 LOG1 POP POP POP POP POP POP POP JUMP JUMPDEST PUSH2 0x24D PUSH2 0x522 JUMP JUMPDEST PUSH2 0x255 PUSH2 0x57A JUMP JUMPDEST JUMP JUMPDEST PUSH2 0x25F PUSH2 0x522 JUMP JUMPDEST PUSH2 0x267 PUSH2 0x54F JUMP JUMPDEST PUSH32 0xE00DF2265BA0BD3EE4434659CE8E386A2224D5B8C7D0C524F2D78A1F5C6FCEE0 DUP3 TIMESTAMP DUP4 PUSH1 0x40 MLOAD PUSH2 0x29A SWAP4 SWAP3 SWAP2 SWAP1 PUSH2 0xBEB JUMP JUMPDEST PUSH1 0x40 MLOAD DUP1 SWAP2 SUB SWAP1 LOG1 POP POP JUMP JUMPDEST PUSH2 0x2AE PUSH2 0x522 JUMP JUMPDEST PUSH2 0x2B6 PUSH2 0x54F JUMP JUMPDEST PUSH32 0xA56EBE5D7E3ACDC10A9B69B6BA2576578D0D5D1613721D339873B1BE10F8B414 DUP5 DUP5 DUP5 TIMESTAMP DUP6 PUSH1 0x40 MLOAD PUSH2 0x2ED SWAP6 SWAP5 SWAP4 SWAP3 SWAP2 SWAP1 PUSH2 0xC10 JUMP JUMPDEST PUSH1 0x40 MLOAD DUP1 SWAP2 SUB SWAP1 LOG1 POP POP POP POP JUMP JUMPDEST PUSH2 0x303 PUSH2 0x522 JUMP JUMPDEST PUSH2 0x30B PUSH2 0x54F JUMP JUMPDEST PUSH32 0x3CE2A1BD1C73A3EACA1D0D04E84187263B16DE9FD795949ADFE4089D4A6C46F9 PUSH1 0x40 MLOAD DUP1 PUSH2 0x100 ADD PUSH1 0x40 MSTORE DUP1 DUP10 DUP2 MSTORE PUSH1 0x20 ADD DUP9 DUP2 MSTORE PUSH1 0x20 ADD DUP8 DUP2 MSTORE PUSH1 0x20 ADD DUP7 DUP2 MSTORE PUSH1 0x20 ADD TIMESTAMP DUP2 MSTORE PUSH1 0x20 ADD DUP6 DUP2 MSTORE PUSH1 0x20 ADD DUP5 DUP2 MSTORE PUSH1 0x20 ADD DUP4 DUP2 MSTORE POP PUSH1 0x40 MLOAD PUSH2 0x234 SWAP2 SWAP1 PUSH2 0xC53 JUMP JUMPDEST PUSH2 0x37B PUSH2 0x522 JUMP JUMPDEST PUSH2 0x255 PUSH1 0x0 PUSH2 0x5CF JUMP JUMPDEST PUSH2 0x38D PUSH2 0x522 JUMP JUMPDEST PUSH2 0x395 PUSH2 0x54F JUMP JUMPDEST PUSH32 0x48168058523BBC2191776B55EAB1CA02F70B119425A731034A490E12293A3C80 PUSH1 0x40 MLOAD DUP1 PUSH1 0xA0 ADD PUSH1 0x40 MSTORE DUP1 DUP8 DUP2 MSTORE PUSH1 0x20 ADD DUP7 DUP2 MSTORE PUSH1 0x20 ADD DUP6 DUP2 MSTORE PUSH1 0x20 ADD DUP5 DUP2 MSTORE PUSH1 0x20 ADD DUP4 DUP2 MSTORE POP PUSH1 0x40 MLOAD PUSH2 0x3EA SWAP2 SWAP1 PUSH2 0xD00 JUMP JUMPDEST PUSH1 0x40 MLOAD DUP1 SWAP2 SUB SWAP1 LOG1 POP POP POP POP POP JUMP JUMPDEST PUSH2 0x401 PUSH2 0x522 JUMP JUMPDEST PUSH2 0x255 PUSH2 0x61F JUMP JUMPDEST PUSH2 0x411 PUSH2 0x522 JUMP JUMPDEST PUSH2 0x419 PUSH2 0x54F JUMP JUMPDEST PUSH32 0x29C37B66E4D2C6ABE2A25ADD57DA4CFC5932CD888F0250A81FF73F29F9545CB PUSH1 0x40 MLOAD DUP1 PUSH1 0xE0 ADD PUSH1 0x40 MSTORE DUP1 DUP10 DUP2 MSTORE PUSH1 0x20 ADD DUP9 DUP2 MSTORE PUSH1 0x20 ADD DUP8 DUP2 MSTORE PUSH1 0x20 ADD DUP7 DUP2 MSTORE PUSH1 0x20 ADD DUP6 DUP2 MSTORE PUSH1 0x20 ADD DUP5 DUP2 MSTORE PUSH1 0x20 ADD DUP4 DUP2 MSTORE POP PUSH1 0x40 MLOAD PUSH2 0x234 SWAP2 SWAP1 PUSH2 0xB37 JUMP JUMPDEST PUSH2 0x482 PUSH2 0x522 JUMP JUMPDEST PUSH2 0x48A PUSH2 0x54F JUMP JUMPDEST PUSH32 0x45911E8FE24BEBFB305453EE8DDC04CB9FF9E150F6EF3764692BF06297A3A28C PUSH1 0x40 MLOAD DUP1 PUSH1 0xA0 ADD PUSH1 0x40 MSTORE DUP1 DUP7 DUP2 MSTORE PUSH1 0x20 ADD DUP6 DUP2 MSTORE PUSH1 0x20 ADD DUP5 DUP2 MSTORE PUSH1 0x20 ADD TIMESTAMP DUP2 MSTORE PUSH1 0x20 ADD DUP4 DUP2 MSTORE POP PUSH1 0x40 MLOAD PUSH2 0x2ED SWAP2 SWAP1 PUSH2 0xD75 JUMP JUMPDEST PUSH2 0x4E7 PUSH2 0x522 JUMP JUMPDEST PUSH1 0x1 PUSH1 0x1 PUSH1 0xA0 SHL SUB DUP2 AND PUSH2 0x516 JUMPI PUSH1 0x40 MLOAD PUSH4 0x1E4FBDF7 PUSH1 0xE0 SHL DUP2 MSTORE PUSH1 0x0 PUSH1 0x4 DUP3 ADD MSTORE PUSH1 0x24 ADD JUMPDEST PUSH1 0x40 MLOAD DUP1 SWAP2 SUB SWAP1 REVERT JUMPDEST PUSH2 0x51F DUP2 PUSH2 0x5CF JUMP JUMPDEST POP JUMP JUMPDEST PUSH1 0x0 SLOAD PUSH1 0x1 PUSH1 0x1 PUSH1 0xA0 SHL SUB AND CALLER EQ PUSH2 0x255 JUMPI PUSH1 0x40 MLOAD PUSH4 0x118CDAA7 PUSH1 0xE0 SHL DUP2 MSTORE CALLER PUSH1 0x4 DUP3 ADD MSTORE PUSH1 0x24 ADD PUSH2 0x50D JUMP JUMPDEST PUSH1 0x0 SLOAD PUSH1 0x1 PUSH1 0xA0 SHL SWAP1 DIV PUSH1 0xFF AND ISZERO PUSH2 0x255 JUMPI PUSH1 0x40 MLOAD PUSH4 0xD93C0665 PUSH1 0xE0 SHL DUP2 MSTORE PUSH1 0x4 ADD PUSH1 0x40 MLOAD DUP1 SWAP2 SUB SWAP1 REVERT JUMPDEST PUSH2 0x582 PUSH2 0x662 JUMP JUMPDEST PUSH1 0x0 DUP1 SLOAD PUSH1 0xFF PUSH1 0xA0 SHL NOT AND SWAP1 SSTORE PUSH32 0x5DB9EE0A495BF2E6FF9C91A7834C1BA4FDD244A5E8AA4E537BD38AEAE4B073AA CALLER JUMPDEST PUSH1 0x40 MLOAD PUSH1 0x1 PUSH1 0x1 PUSH1 0xA0 SHL SUB SWAP1 SWAP2 AND DUP2 MSTORE PUSH1 0x20 ADD PUSH1 0x40 MLOAD DUP1 SWAP2 SUB SWAP1 LOG1 JUMP JUMPDEST PUSH1 0x0 DUP1 SLOAD PUSH1 0x1 PUSH1 0x1 PUSH1 0xA0 SHL SUB DUP4 DUP2 AND PUSH1 0x1 PUSH1 0x1 PUSH1 0xA0 SHL SUB NOT DUP4 AND DUP2 OR DUP5 SSTORE PUSH1 0x40 MLOAD SWAP2 SWAP1 SWAP3 AND SWAP3 DUP4 SWAP2 PUSH32 0x8BE0079C531659141344CD1FD0A4F28419497F9722A3DAAFE3B4186F6B6457E0 SWAP2 SWAP1 LOG3 POP POP JUMP JUMPDEST PUSH2 0x627 PUSH2 0x54F JUMP JUMPDEST PUSH1 0x0 DUP1 SLOAD PUSH1 0xFF PUSH1 0xA0 SHL NOT AND PUSH1 0x1 PUSH1 0xA0 SHL OR SWAP1 SSTORE PUSH32 0x62E78CEA01BEE320CD4E420270B5EA74000D11B0C9F74754EBDBFC544B05A258 PUSH2 0x5B2 CALLER SWAP1 JUMP JUMPDEST PUSH1 0x0 SLOAD PUSH1 0x1 PUSH1 0xA0 SHL SWAP1 DIV PUSH1 0xFF AND PUSH2 0x255 JUMPI PUSH1 0x40 MLOAD PUSH4 0x8DFC202B PUSH1 0xE0 SHL DUP2 MSTORE PUSH1 0x4 ADD PUSH1 0x40 MLOAD DUP1 SWAP2 SUB SWAP1 REVERT JUMPDEST PUSH4 0x4E487B71 PUSH1 0xE0 SHL PUSH1 0x0 MSTORE PUSH1 0x41 PUSH1 0x4 MSTORE PUSH1 0x24 PUSH1 0x0 REVERT JUMPDEST PUSH1 0x0 DUP3 PUSH1 0x1F DUP4 ADD SLT PUSH2 0x6B3 JUMPI PUSH1 0x0 DUP1 REVERT JUMPDEST DUP2 CALLDATALOAD PUSH8 0xFFFFFFFFFFFFFFFF DUP1 DUP3 GT ISZERO PUSH2 0x6CE JUMPI PUSH2 0x6CE PUSH2 0x68C JUMP JUMPDEST PUSH1 0x40 MLOAD PUSH1 0x1F DUP4 ADD PUSH1 0x1F NOT SWAP1 DUP2 AND PUSH1 0x3F ADD AND DUP2 ADD SWAP1 DUP3 DUP3 GT DUP2 DUP4 LT OR ISZERO PUSH2 0x6F6 JUMPI PUSH2 0x6F6 PUSH2 0x68C JUMP JUMPDEST DUP2 PUSH1 0x40 MSTORE DUP4 DUP2 MSTORE DUP7 PUSH1 0x20 DUP6 DUP9 ADD ADD GT ISZERO PUSH2 0x70F JUMPI PUSH1 0x0 DUP1 REVERT JUMPDEST DUP4 PUSH1 0x20 DUP8 ADD PUSH1 0x20 DUP4 ADD CALLDATACOPY PUSH1 0x0 PUSH1 0x20 DUP6 DUP4 ADD ADD MSTORE DUP1 SWAP5 POP POP POP POP POP SWAP3 SWAP2 POP POP JUMP JUMPDEST PUSH1 0x0 DUP1 PUSH1 0x0 DUP1 PUSH1 0x0 DUP1 PUSH1 0x0 PUSH1 0xE0 DUP9 DUP11 SUB SLT ISZERO PUSH2 0x74A JUMPI PUSH1 0x0 DUP1 REVERT JUMPDEST DUP8 CALLDATALOAD PUSH8 0xFFFFFFFFFFFFFFFF DUP1 DUP3 GT ISZERO PUSH2 0x762 JUMPI PUSH1 0x0 DUP1 REVERT JUMPDEST PUSH2 0x76E DUP12 DUP4 DUP13 ADD PUSH2 0x6A2 JUMP JUMPDEST SWAP9 POP PUSH1 0x20 DUP11 ADD CALLDATALOAD SWAP2 POP DUP1 DUP3 GT ISZERO PUSH2 0x784 JUMPI PUSH1 0x0 DUP1 REVERT JUMPDEST PUSH2 0x790 DUP12 DUP4 DUP13 ADD PUSH2 0x6A2 JUMP JUMPDEST SWAP8 POP PUSH1 0x40 DUP11 ADD CALLDATALOAD SWAP2 POP DUP1 DUP3 GT ISZERO PUSH2 0x7A6 JUMPI PUSH1 0x0 DUP1 REVERT JUMPDEST PUSH2 0x7B2 DUP12 DUP4 DUP13 ADD PUSH2 0x6A2 JUMP JUMPDEST SWAP7 POP PUSH1 0x60 DUP11 ADD CALLDATALOAD SWAP6 POP PUSH1 0x80 DUP11 ADD CALLDATALOAD SWAP2 POP DUP1 DUP3 GT ISZERO PUSH2 0x7CF JUMPI PUSH1 0x0 DUP1 REVERT JUMPDEST PUSH2 0x7DB DUP12 DUP4 DUP13 ADD PUSH2 0x6A2 JUMP JUMPDEST SWAP5 POP PUSH1 0xA0 DUP11 ADD CALLDATALOAD SWAP2 POP DUP1 DUP3 GT ISZERO PUSH2 0x7F1 JUMPI PUSH1 0x0 DUP1 REVERT JUMPDEST POP PUSH2 0x7FE DUP11 DUP3 DUP12 ADD PUSH2 0x6A2 JUMP JUMPDEST SWAP3 POP POP PUSH1 0xC0 DUP9 ADD CALLDATALOAD SWAP1 POP SWAP3 SWAP6 SWAP9 SWAP2 SWAP5 SWAP8 POP SWAP3 SWAP6 POP JUMP JUMPDEST PUSH1 0x0 DUP1 PUSH1 0x40 DUP4 DUP6 SUB SLT ISZERO PUSH2 0x827 JUMPI PUSH1 0x0 DUP1 REVERT JUMPDEST DUP3 CALLDATALOAD PUSH8 0xFFFFFFFFFFFFFFFF DUP2 GT ISZERO PUSH2 0x83E JUMPI PUSH1 0x0 DUP1 REVERT JUMPDEST PUSH2 0x84A DUP6 DUP3 DUP7 ADD PUSH2 0x6A2 JUMP JUMPDEST SWAP6 PUSH1 0x20 SWAP5 SWAP1 SWAP5 ADD CALLDATALOAD SWAP5 POP POP POP POP JUMP JUMPDEST PUSH1 0x0 DUP1 PUSH1 0x0 DUP1 PUSH1 0x80 DUP6 DUP8 SUB SLT ISZERO PUSH2 0x86F JUMPI PUSH1 0x0 DUP1 REVERT JUMPDEST DUP5 CALLDATALOAD PUSH8 0xFFFFFFFFFFFFFFFF DUP1 DUP3 GT ISZERO PUSH2 0x887 JUMPI PUSH1 0x0 DUP1 REVERT JUMPDEST PUSH2 0x893 DUP9 DUP4 DUP10 ADD PUSH2 0x6A2 JUMP JUMPDEST SWAP6 POP PUSH1 0x20 DUP8 ADD CALLDATALOAD SWAP2 POP DUP1 DUP3 GT ISZERO PUSH2 0x8A9 JUMPI PUSH1 0x0 DUP1 REVERT JUMPDEST POP PUSH2 0x8B6 DUP8 DUP3 DUP9 ADD PUSH2 0x6A2 JUMP JUMPDEST SWAP5 SWAP8 SWAP5 SWAP7 POP POP POP POP PUSH1 0x40 DUP4 ADD CALLDATALOAD SWAP3 PUSH1 0x60 ADD CALLDATALOAD SWAP2 SWAP1 POP JUMP JUMPDEST PUSH1 0x0 DUP1 PUSH1 0x0 DUP1 PUSH1 0x0 DUP1 PUSH1 0x0 PUSH1 0xE0 DUP9 DUP11 SUB SLT ISZERO PUSH2 0x8E8 JUMPI PUSH1 0x0 DUP1 REVERT JUMPDEST DUP8 CALLDATALOAD PUSH8 0xFFFFFFFFFFFFFFFF DUP1 DUP3 GT ISZERO PUSH2 0x900 JUMPI PUSH1 0x0 DUP1 REVERT JUMPDEST PUSH2 0x90C DUP12 DUP4 DUP13 ADD PUSH2 0x6A2 JUMP JUMPDEST SWAP9 POP PUSH1 0x20 DUP11 ADD CALLDATALOAD SWAP2 POP DUP1 DUP3 GT ISZERO PUSH2 0x922 JUMPI PUSH1 0x0 DUP1 REVERT JUMPDEST PUSH2 0x92E DUP12 DUP4 DUP13 ADD PUSH2 0x6A2 JUMP JUMPDEST SWAP8 POP PUSH1 0x40 DUP11 ADD CALLDATALOAD SWAP2 POP DUP1 DUP3 GT ISZERO PUSH2 0x944 JUMPI PUSH1 0x0 DUP1 REVERT JUMPDEST PUSH2 0x950 DUP12 DUP4 DUP13 ADD PUSH2 0x6A2 JUMP JUMPDEST SWAP7 POP PUSH1 0x60 DUP11 ADD CALLDATALOAD SWAP2 POP DUP1 DUP3 GT ISZERO PUSH2 0x966 JUMPI PUSH1 0x0 DUP1 REVERT JUMPDEST POP PUSH2 0x973 DUP11 DUP3 DUP12 ADD PUSH2 0x6A2 JUMP JUMPDEST SWAP8 SWAP11 SWAP7 SWAP10 POP SWAP5 SWAP8 PUSH1 0x80 DUP2 ADD CALLDATALOAD SWAP7 PUSH1 0xA0 DUP3 ADD CALLDATALOAD SWAP7 POP PUSH1 0xC0 SWAP1 SWAP2 ADD CALLDATALOAD SWAP5 POP SWAP3 POP POP POP JUMP JUMPDEST PUSH1 0x0 DUP1 PUSH1 0x0 DUP1 PUSH1 0x0 PUSH1 0xA0 DUP7 DUP9 SUB SLT ISZERO PUSH2 0x9AD JUMPI PUSH1 0x0 DUP1 REVERT JUMPDEST DUP6 CALLDATALOAD PUSH8 0xFFFFFFFFFFFFFFFF DUP1 DUP3 GT ISZERO PUSH2 0x9C5 JUMPI PUSH1 0x0 DUP1 REVERT JUMPDEST PUSH2 0x9D1 DUP10 DUP4 DUP11 ADD PUSH2 0x6A2 JUMP JUMPDEST SWAP7 POP PUSH1 0x20 DUP9 ADD CALLDATALOAD SWAP2 POP DUP1 DUP3 GT ISZERO PUSH2 0x9E7 JUMPI PUSH1 0x0 DUP1 REVERT JUMPDEST PUSH2 0x9F3 DUP10 DUP4 DUP11 ADD PUSH2 0x6A2 JUMP JUMPDEST SWAP6 POP PUSH1 0x40 DUP9 ADD CALLDATALOAD SWAP5 POP PUSH1 0x60 DUP9 ADD CALLDATALOAD SWAP4 POP PUSH1 0x80 DUP9 ADD CALLDATALOAD SWAP2 POP DUP1 DUP3 GT ISZERO PUSH2 0xA17 JUMPI PUSH1 0x0 DUP1 REVERT JUMPDEST POP PUSH2 0xA24 DUP9 DUP3 DUP10 ADD PUSH2 0x6A2 JUMP JUMPDEST SWAP2 POP POP SWAP3 SWAP6 POP SWAP3 SWAP6 SWAP1 SWAP4 POP JUMP JUMPDEST PUSH1 0x0 DUP1 PUSH1 0x0 DUP1 PUSH1 0x80 DUP6 DUP8 SUB SLT ISZERO PUSH2 0xA47 JUMPI PUSH1 0x0 DUP1 REVERT JUMPDEST DUP5 CALLDATALOAD PUSH8 0xFFFFFFFFFFFFFFFF DUP1 DUP3 GT ISZERO PUSH2 0xA5F JUMPI PUSH1 0x0 DUP1 REVERT JUMPDEST PUSH2 0xA6B DUP9 DUP4 DUP10 ADD PUSH2 0x6A2 JUMP JUMPDEST SWAP6 POP PUSH1 0x20 DUP8 ADD CALLDATALOAD SWAP2 POP DUP1 DUP3 GT ISZERO PUSH2 0xA81 JUMPI PUSH1 0x0 DUP1 REVERT JUMPDEST PUSH2 0xA8D DUP9 DUP4 DUP10 ADD PUSH2 0x6A2 JUMP JUMPDEST SWAP5 POP PUSH1 0x40 DUP8 ADD CALLDATALOAD SWAP2 POP DUP1 DUP3 GT ISZERO PUSH2 0xAA3 JUMPI PUSH1 0x0 DUP1 REVERT JUMPDEST POP PUSH2 0xAB0 DUP8 DUP3 DUP9 ADD PUSH2 0x6A2 JUMP JUMPDEST SWAP5 SWAP8 SWAP4 SWAP7 POP SWAP4 SWAP5 PUSH1 0x60 ADD CALLDATALOAD SWAP4 POP POP POP JUMP JUMPDEST PUSH1 0x0 PUSH1 0x20 DUP3 DUP5 SUB SLT ISZERO PUSH2 0xAD3 JUMPI PUSH1 0x0 DUP1 REVERT JUMPDEST DUP2 CALLDATALOAD PUSH1 0x1 PUSH1 0x1 PUSH1 0xA0 SHL SUB DUP2 AND DUP2 EQ PUSH2 0xAEA JUMPI PUSH1 0x0 DUP1 REVERT JUMPDEST SWAP4 SWAP3 POP POP POP JUMP JUMPDEST PUSH1 0x0 DUP2 MLOAD DUP1 DUP5 MSTORE PUSH1 0x0 JUMPDEST DUP2 DUP2 LT ISZERO PUSH2 0xB17 JUMPI PUSH1 0x20 DUP2 DUP6 ADD DUP2 ADD MLOAD DUP7 DUP4 ADD DUP3 ADD MSTORE ADD PUSH2 0xAFB JUMP JUMPDEST POP PUSH1 0x0 PUSH1 0x20 DUP3 DUP7 ADD ADD MSTORE PUSH1 0x20 PUSH1 0x1F NOT PUSH1 0x1F DUP4 ADD AND DUP6 ADD ADD SWAP2 POP POP SWAP3 SWAP2 POP POP JUMP JUMPDEST PUSH1 0x20 DUP2 MSTORE PUSH1 0x0 DUP3 MLOAD PUSH1 0xE0 PUSH1 0x20 DUP5 ADD MSTORE PUSH2 0xB54 PUSH2 0x100 DUP5 ADD DUP3 PUSH2 0xAF1 JUMP JUMPDEST SWAP1 POP PUSH1 0x20 DUP5 ADD MLOAD PUSH1 0x1F NOT DUP1 DUP6 DUP5 SUB ADD PUSH1 0x40 DUP7 ADD MSTORE PUSH2 0xB72 DUP4 DUP4 PUSH2 0xAF1 JUMP JUMPDEST SWAP3 POP PUSH1 0x40 DUP7 ADD MLOAD SWAP2 POP DUP1 DUP6 DUP5 SUB ADD PUSH1 0x60 DUP7 ADD MSTORE PUSH2 0xB8F DUP4 DUP4 PUSH2 0xAF1 JUMP JUMPDEST SWAP3 POP PUSH1 0x60 DUP7 ADD MLOAD PUSH1 0x80 DUP7 ADD MSTORE PUSH1 0x80 DUP7 ADD MLOAD SWAP2 POP DUP1 DUP6 DUP5 SUB ADD PUSH1 0xA0 DUP7 ADD MSTORE PUSH2 0xBB6 DUP4 DUP4 PUSH2 0xAF1 JUMP JUMPDEST SWAP3 POP PUSH1 0xA0 DUP7 ADD MLOAD SWAP2 POP DUP1 DUP6 DUP5 SUB ADD PUSH1 0xC0 DUP7 ADD MSTORE POP PUSH2 0xBD4 DUP3 DUP3 PUSH2 0xAF1 JUMP JUMPDEST SWAP2 POP POP PUSH1 0xC0 DUP5 ADD MLOAD PUSH1 0xE0 DUP5 ADD MSTORE DUP1 SWAP2 POP POP SWAP3 SWAP2 POP POP JUMP JUMPDEST PUSH1 0x60 DUP2 MSTORE PUSH1 0x0 PUSH2 0xBFE PUSH1 0x60 DUP4 ADD DUP7 PUSH2 0xAF1 JUMP JUMPDEST PUSH1 0x20 DUP4 ADD SWAP5 SWAP1 SWAP5 MSTORE POP PUSH1 0x40 ADD MSTORE SWAP2 SWAP1 POP JUMP JUMPDEST PUSH1 0xA0 DUP2 MSTORE PUSH1 0x0 PUSH2 0xC23 PUSH1 0xA0 DUP4 ADD DUP9 PUSH2 0xAF1 JUMP JUMPDEST DUP3 DUP2 SUB PUSH1 0x20 DUP5 ADD MSTORE PUSH2 0xC35 DUP2 DUP9 PUSH2 0xAF1 JUMP JUMPDEST PUSH1 0x40 DUP5 ADD SWAP7 SWAP1 SWAP7 MSTORE POP POP PUSH1 0x60 DUP2 ADD SWAP3 SWAP1 SWAP3 MSTORE PUSH1 0x80 SWAP1 SWAP2 ADD MSTORE SWAP3 SWAP2 POP POP JUMP JUMPDEST PUSH1 0x20 DUP2 MSTORE PUSH1 0x0 DUP3 MLOAD PUSH2 0x100 DUP1 PUSH1 0x20 DUP6 ADD MSTORE PUSH2 0xC72 PUSH2 0x120 DUP6 ADD DUP4 PUSH2 0xAF1 JUMP JUMPDEST SWAP2 POP PUSH1 0x20 DUP6 ADD MLOAD PUSH1 0x1F NOT DUP1 DUP7 DUP6 SUB ADD PUSH1 0x40 DUP8 ADD MSTORE PUSH2 0xC90 DUP5 DUP4 PUSH2 0xAF1 JUMP JUMPDEST SWAP4 POP PUSH1 0x40 DUP8 ADD MLOAD SWAP2 POP DUP1 DUP7 DUP6 SUB ADD PUSH1 0x60 DUP8 ADD MSTORE PUSH2 0xCAD DUP5 DUP4 PUSH2 0xAF1 JUMP JUMPDEST SWAP4 POP PUSH1 0x60 DUP8 ADD MLOAD SWAP2 POP DUP1 DUP7 DUP6 SUB ADD PUSH1 0x80 DUP8 ADD MSTORE POP PUSH2 0xCCB DUP4 DUP3 PUSH2 0xAF1 JUMP JUMPDEST SWAP3 POP POP PUSH1 0x80 DUP6 ADD MLOAD PUSH1 0xA0 DUP6 ADD MSTORE PUSH1 0xA0 DUP6 ADD MLOAD PUSH1 0xC0 DUP6 ADD MSTORE PUSH1 0xC0 DUP6 ADD MLOAD PUSH1 0xE0 DUP6 ADD MSTORE PUSH1 0xE0 DUP6 ADD MLOAD DUP2 DUP6 ADD MSTORE POP DUP1 SWAP2 POP POP SWAP3 SWAP2 POP POP JUMP JUMPDEST PUSH1 0x20 DUP2 MSTORE PUSH1 0x0 DUP3 MLOAD PUSH1 0xA0 PUSH1 0x20 DUP5 ADD MSTORE PUSH2 0xD1C PUSH1 0xC0 DUP5 ADD DUP3 PUSH2 0xAF1 JUMP JUMPDEST SWAP1 POP PUSH1 0x20 DUP5 ADD MLOAD PUSH1 0x1F NOT DUP1 DUP6 DUP5 SUB ADD PUSH1 0x40 DUP7 ADD MSTORE PUSH2 0xD3A DUP4 DUP4 PUSH2 0xAF1 JUMP JUMPDEST SWAP3 POP PUSH1 0x40 DUP7 ADD MLOAD PUSH1 0x60 DUP7 ADD MSTORE PUSH1 0x60 DUP7 ADD MLOAD PUSH1 0x80 DUP7 ADD MSTORE PUSH1 0x80 DUP7 ADD MLOAD SWAP2 POP DUP1 DUP6 DUP5 SUB ADD PUSH1 0xA0 DUP7 ADD MSTORE POP PUSH2 0xD6C DUP3 DUP3 PUSH2 0xAF1 JUMP JUMPDEST SWAP6 SWAP5 POP POP POP POP POP JUMP JUMPDEST PUSH1 0x20 DUP2 MSTORE PUSH1 0x0 DUP3 MLOAD PUSH1 0xA0 PUSH1 0x20 DUP5 ADD MSTORE PUSH2 0xD91 PUSH1 0xC0 DUP5 ADD DUP3 PUSH2 0xAF1 JUMP JUMPDEST SWAP1 POP PUSH1 0x20 DUP5 ADD MLOAD PUSH1 0x1F NOT DUP1 DUP6 DUP5 SUB ADD PUSH1 0x40 DUP7 ADD MSTORE PUSH2 0xDAF DUP4 DUP4 PUSH2 0xAF1 JUMP JUMPDEST SWAP3 POP PUSH1 0x40 DUP7 ADD MLOAD SWAP2 POP DUP1 DUP6 DUP5 SUB ADD PUSH1 0x60 DUP7 ADD MSTORE POP PUSH2 0xDCD DUP3 DUP3 PUSH2 0xAF1 JUMP JUMPDEST SWAP2 POP POP PUSH1 0x60 DUP5 ADD MLOAD PUSH1 0x80 DUP5 ADD MSTORE PUSH1 0x80 DUP5 ADD MLOAD PUSH1 0xA0 DUP5 ADD MSTORE DUP1 SWAP2 POP POP SWAP3 SWAP2 POP POP JUMP INVALID LOG2 PUSH5 0x6970667358 0x22 SLT KECCAK256 PUSH5 0x1501F7441E 0x22 DUP5 0xD DUP8 0xE5 CHAINID CALLVALUE RETURNDATASIZE GASPRICE PUSH26 0x241CE5D8E056D177AE70B442D5D9B28A64736F6C634300081400 CALLER "},"methodIdentifiers":{"logBidEvaluation(string,string,uint256,bytes32)":"61f5f8dc","logBidSubmission(string,string,string,bytes32)":"9afbcb9c","logContractAward(string,string,string,string,uint256,uint256,uint256)":"668645ca","logMilestoneCreation(string,string,string,uint256,string,string,bytes32)":"940ed80d","logMilestoneUpdate(string,string,string,uint256,string,string,bytes32)":"0536d148","logRfpCreation(string,string,uint256,uint256,string)":"73ea210a","logRfpPublication(string,uint256)":"4bcefde8","owner()":"8da5cb5b","pause()":"8456cb59","paused()":"5c975abb","renounceOwnership()":"715018a6","transferOwnership(address)":"f2fde38b","unpause()":"3f4ba83a"}}}}}