{
  "_format": "hh-sol-artifact-1",
  "contractName": "ProcurementLog",
  "sourceName": "contracts/ProcurementLog.sol",
  "abi": [
    {
      "inputs": [],
      "stateMutability": "nonpayable",
      "type": "constructor"
    },
    {
      "inputs": [],
      "name": "EnforcedPause",
      "type": "error"
    },
    {
      "inputs": [],
      "name": "ExpectedPause",
      "type": "error"
    },
    {
      "inputs": [
        {
          "internalType": "address",
          "name": "owner",
          "type": "address"
        }
      ],
      "name": "OwnableInvalidOwner",
      "type": "error"
    },
    {
      "inputs": [
        {
          "internalType": "address",
          "name": "account",
          "type": "address"
        }
      ],
      "name": "OwnableUnauthorizedAccount",
      "type": "error"
    },
    {
      "anonymous": false,
      "inputs": [
        {
          "indexed": false,
          "internalType": "string",
          "name": "bidId",
          "type": "string"
        },
        {
          "indexed": false,
          "internalType": "string",
          "name": "rfpId",
          "type": "string"
        },
        {
          "indexed": false,
          "internalType": "uint256",
          "name": "evaluationScore",
          "type": "uint256"
        },
        {
          "indexed": false,
          "internalType": "uint256",
          "name": "evaluationDate",
          "type": "uint256"
        },
        {
          "indexed": false,
          "internalType": "bytes32",
          "name": "evaluationHash",
          "type": "bytes32"
        }
      ],
      "name": "BidEvaluated",
      "type": "event"
    },
    {
      "anonymous": false,
      "inputs": [
        {
          "components": [
            {
              "internalType": "string",
              "name": "bidId",
              "type": "string"
            },
            {
              "internalType": "string",
              "name": "rfpId",
              "type": "string"
            },
            {
              "internalType": "string",
              "name": "vendorId",
              "type": "string"
            },
            {
              "internalType": "uint256",
              "name": "submissionDate",
              "type": "uint256"
            },
            {
              "internalType": "bytes32",
              "name": "proposalHash",
              "type": "bytes32"
            }
          ],
          "indexed": false,
          "internalType": "struct ProcurementLog.BidData",
          "name": "data",
          "type": "tuple"
        }
      ],
      "name": "BidSubmitted",
      "type": "event"
    },
    {
      "anonymous": false,
      "inputs": [
        {
          "components": [
            {
              "internalType": "string",
              "name": "contractId",
              "type": "string"
            },
            {
              "internalType": "string",
              "name": "rfpId",
              "type": "string"
            },
            {
              "internalType": "string",
              "name": "vendorId",
              "type": "string"
            },
            {
              "internalType": "string",
              "name": "bidId",
              "type": "string"
            },
            {
              "internalType": "uint256",
              "name": "awardDate",
              "type": "uint256"
            },
            {
              "internalType": "uint256",
              "name": "totalValue",
              "type": "uint256"
            },
            {
              "internalType": "uint256",
              "name": "startDate",
              "type": "uint256"
            },
            {
              "internalType": "uint256",
              "name": "endDate",
              "type": "uint256"
            }
          ],
          "indexed": false,
          "internalType": "struct ProcurementLog.ContractData",
          "name": "data",
          "type": "tuple"
        }
      ],
      "name": "ContractAwarded",
      "type": "event"
    },
    {
      "anonymous": false,
      "inputs": [
        {
          "components": [
            {
              "internalType": "string",
              "name": "milestoneId",
              "type": "string"
            },
            {
              "internalType": "string",
              "name": "contractId",
              "type": "string"
            },
            {
              "internalType": "string",
              "name": "title",
              "type": "string"
            },
            {
              "internalType": "uint256",
              "name": "dueDate",
              "type": "uint256"
            },
            {
              "internalType": "string",
              "name": "status",
              "type": "string"
            },
            {
              "internalType": "string",
              "name": "updatedBy",
              "type": "string"
            },
            {
              "internalType": "bytes32",
              "name": "detailsHash",
              "type": "bytes32"
            }
          ],
          "indexed": false,
          "internalType": "struct ProcurementLog.MilestoneData",
          "name": "data",
          "type": "tuple"
        }
      ],
      "name": "MilestoneCreated",
      "type": "event"
    },
    {
      "anonymous": false,
      "inputs": [
        {
          "components": [
            {
              "internalType": "string",
              "name": "milestoneId",
              "type": "string"
            },
            {
              "internalType": "string",
              "name": "contractId",
              "type": "string"
            },
            {
              "internalType": "string",
              "name": "title",
              "type": "string"
            },
            {
              "internalType": "uint256",
              "name": "dueDate",
              "type": "uint256"
            },
            {
              "internalType": "string",
              "name": "status",
              "type": "string"
            },
            {
              "internalType": "string",
              "name": "updatedBy",
              "type": "string"
            },
            {
              "internalType": "bytes32",
              "name": "detailsHash",
              "type": "bytes32"
            }
          ],
          "indexed": false,
          "internalType": "struct ProcurementLog.MilestoneData",
          "name": "data",
          "type": "tuple"
        }
      ],
      "name": "MilestoneUpdated",
      "type": "event"
    },
    {
      "anonymous": false,
      "inputs": [
        {
          "indexed": true,
          "internalType": "address",
          "name": "previousOwner",
          "type": "address"
        },
        {
          "indexed": true,
          "internalType": "address",
          "name": "newOwner",
          "type": "address"
        }
      ],
      "name": "OwnershipTransferred",
      "type": "event"
    },
    {
      "anonymous": false,
      "inputs": [
        {
          "indexed": false,
          "internalType": "address",
          "name": "account",
          "type": "address"
        }
      ],
      "name": "Paused",
      "type": "event"
    },
    {
      "anonymous": false,
      "inputs": [
        {
          "components": [
            {
              "internalType": "string",
              "name": "rfpId",
              "type": "string"
            },
            {
              "internalType": "string",
              "name": "title",
              "type": "string"
            },
            {
              "internalType": "uint256",
              "name": "budget",
              "type": "uint256"
            },
            {
              "internalType": "uint256",
              "name": "submissionDeadline",
              "type": "uint256"
            },
            {
              "internalType": "string",
              "name": "createdBy",
              "type": "string"
            }
          ],
          "indexed": false,
          "internalType": "struct ProcurementLog.RfpData",
          "name": "data",
          "type": "tuple"
        }
      ],
      "name": "RfpCreated",
      "type": "event"
    },
    {
      "anonymous": false,
      "inputs": [
        {
          "indexed": false,
          "internalType": "string",
          "name": "rfpId",
          "type": "string"
        },
        {
          "indexed": false,
          "internalType": "uint256",
          "name": "publishDate",
          "type": "uint256"
        },
        {
          "indexed": false,
          "internalType": "uint256",
          "name": "numberOfBidsAllowed",
          "type": "uint256"
        }
      ],
      "name": "RfpPublished",
      "type": "event"
    },
    {
      "anonymous": false,
      "inputs": [
        {
          "indexed": false,
          "internalType": "address",
          "name": "account",
          "type": "address"
        }
      ],
      "name": "Unpaused",
      "type": "event"
    },
    {
      "inputs": [
        {
          "internalType": "string",
          "name": "bidId",
          "type": "string"
        },
        {
          "internalType": "string",
          "name": "rfpId",
          "type": "string"
        },
        {
          "internalType": "uint256",
          "name": "evaluationScore",
          "type": "uint256"
        },
        {
          "internalType": "bytes32",
          "name": "evaluationHash",
          "type": "bytes32"
        }
      ],
      "name": "logBidEvaluation",
      "outputs": [],
      "stateMutability": "nonpayable",
      "type": "function"
    },
    {
      "inputs": [
        {
          "internalType": "string",
          "name": "bidId",
          "type": "string"
        },
        {
          "internalType": "string",
          "name": "rfpId",
          "type": "string"
        },
        {
          "internalType": "string",
          "name": "vendorId",
          "type": "string"
        },
        {
          "internalType": "bytes32",
          "name": "proposalHash",
          "type": "bytes32"
        }
      ],
      "name": "logBidSubmission",
      "outputs": [],
      "stateMutability": "nonpayable",
      "type": "function"
    },
    {
      "inputs": [
        {
          "internalType": "string",
          "name": "contractId",
          "type": "string"
        },
        {
          "internalType": "string",
          "name": "rfpId",
          "type": "string"
        },
        {
          "internalType": "string",
          "name": "vendorId",
          "type": "string"
        },
        {
          "internalType": "string",
          "name": "bidId",
          "type": "string"
        },
        {
          "internalType": "uint256",
          "name": "totalValue",
          "type": "uint256"
        },
        {
          "internalType": "uint256",
          "name": "startDate",
          "type": "uint256"
        },
        {
          "internalType": "uint256",
          "name": "endDate",
          "type": "uint256"
        }
      ],
      "name": "logContractAward",
      "outputs": [],
      "stateMutability": "nonpayable",
      "type": "function"
    },
    {
      "inputs": [
        {
          "internalType": "string",
          "name": "milestoneId",
          "type": "string"
        },
        {
          "internalType": "string",
          "name": "contractId",
          "type": "string"
        },
        {
          "internalType": "string",
          "name": "title",
          "type": "string"
        },
        {
          "internalType": "uint256",
          "name": "dueDate",
          "type": "uint256"
        },
        {
          "internalType": "string",
          "name": "status",
          "type": "string"
        },
        {
          "internalType": "string",
          "name": "updatedBy",
          "type": "string"
        },
        {
          "internalType": "bytes32",
          "name": "detailsHash",
          "type": "bytes32"
        }
      ],
      "name": "logMilestoneCreation",
      "outputs": [],
      "stateMutability": "nonpayable",
      "type": "function"
    },
    {
      "inputs": [
        {
          "internalType": "string",
          "name": "milestoneId",
          "type": "string"
        },
        {
          "internalType": "string",
          "name": "contractId",
          "type": "string"
        },
        {
          "internalType": "string",
          "name": "title",
          "type": "string"
        },
        {
          "internalType": "uint256",
          "name": "dueDate",
          "type": "uint256"
        },
        {
          "internalType": "string",
          "name": "status",
          "type": "string"
        },
        {
          "internalType": "string",
          "name": "updatedBy",
          "type": "string"
        },
        {
          "internalType": "bytes32",
          "name": "detailsHash",
          "type": "bytes32"
        }
      ],
      "name": "logMilestoneUpdate",
      "outputs": [],
      "stateMutability": "nonpayable",
      "type": "function"
    },
    {
      "inputs": [
        {
          "internalType": "string",
          "name": "rfpId",
          "type": "string"
        },
        {
          "internalType": "string",
          "name": "title",
          "type": "string"
        },
        {
          "internalType": "uint256",
          "name": "budget",
          "type": "uint256"
        },
        {
          "internalType": "uint256",
          "name": "submissionDeadline",
          "type": "uint256"
        },
        {
          "internalType": "string",
          "name": "createdBy",
          "type": "string"
        }
      ],
      "name": "logRfpCreation",
      "outputs": [],
      "stateMutability": "nonpayable",
      "type": "function"
    },
    {
      "inputs": [
        {
          "internalType": "string",
          "name": "rfpId",
          "type": "string"
        },
        {
          "internalType": "uint256",
          "name": "numberOfBidsAllowed",
          "type": "uint256"
        }
      ],
      "name": "logRfpPublication",
      "outputs": [],
      "stateMutability": "nonpayable",
      "type": "function"
    },
    {
      "inputs": [],
      "name": "owner",
      "outputs": [
        {
          "internalType": "address",
          "name": "",
          "type": "address"
        }
      ],
      "stateMutability": "view",
      "type": "function"
    },
    {
      "inputs": [],
      "name": "pause",
      "outputs": [],
      "stateMutability": "nonpayable",
      "type": "function"
    },
    {
      "inputs": [],
      "name": "paused",
      "outputs": [
        {
          "internalType": "bool",
          "name": "",
          "type": "bool"
        }
      ],
      "stateMutability": "view",
      "type": "function"
    },
    {
      "inputs": [],
      "name": "renounceOwnership",
      "outputs": [],
      "stateMutability": "nonpayable",
      "type": "function"
    },
    {
      "inputs": [
        {
          "internalType": "address",
          "name": "newOwner",
          "type": "address"
        }
      ],
      "name": "transferOwnership",
      "outputs": [],
      "stateMutability": "nonpayable",
      "type": "function"
    },
    {
      "inputs": [],
      "name": "unpause",
      "outputs": [],
      "stateMutability": "nonpayable",
      "type": "function"
    }
  ],
  "bytecode": "0x608060405234801561001057600080fd5b50338061003757604051631e4fbdf760e01b81526000600482015260240160405180910390fd5b61004081610053565b506000805460ff60a01b191690556100a3565b600080546001600160a01b038381166001600160a01b0319831681178455604051919092169283917f8be0079c531659141344cd1fd0a4f28419497f9722a3daafe3b4186f6b6457e09190a35050565b610e24806100b26000396000f3fe608060405234801561001057600080fd5b50600436106100cf5760003560e01c8063715018a61161008c5780638da5cb5b116100665780638da5cb5b1461016f578063940ed80d1461018a5780639afbcb9c1461019d578063f2fde38b146101b057600080fd5b8063715018a61461014c57806373ea210a146101545780638456cb591461016757600080fd5b80630536d148146100d45780633f4ba83a146100e95780634bcefde8146100f15780635c975abb1461010457806361f5f8dc14610126578063668645ca14610139575b600080fd5b6100e76100e236600461072f565b6101c3565b005b6100e7610245565b6100e76100ff366004610814565b610257565b600054600160a01b900460ff1660405190151581526020015b60405180910390f35b6100e7610134366004610859565b6102a6565b6100e76101473660046108cd565b6102fb565b6100e7610373565b6100e7610162366004610995565b610385565b6100e76103f9565b6000546040516001600160a01b03909116815260200161011d565b6100e761019836600461072f565b610409565b6100e76101ab366004610a31565b61047a565b6100e76101be366004610ac1565b6104df565b6101cb610522565b6101d361054f565b7f433f13d5f497f41f2eebd5fc871f856e948119ae355a1063579df62260c709486040518060e00160405280898152602001888152602001878152602001868152602001858152602001848152602001838152506040516102349190610b37565b60405180910390a150505050505050565b61024d610522565b61025561057a565b565b61025f610522565b61026761054f565b7fe00df2265ba0bd3ee4434659ce8e386a2224d5b8c7d0c524f2d78a1f5c6fcee082428360405161029a93929190610beb565b60405180910390a15050565b6102ae610522565b6102b661054f565b7fa56ebe5d7e3acdc10a9b69b6ba2576578d0d5d1613721d339873b1be10f8b41484848442856040516102ed959493929190610c10565b60405180910390a150505050565b610303610522565b61030b61054f565b7f3ce2a1bd1c73a3eaca1d0d04e84187263b16de9fd795949adfe4089d4a6c46f9604051806101000160405280898152602001888152602001878152602001868152602001428152602001858152602001848152602001838152506040516102349190610c53565b61037b610522565b61025560006105cf565b61038d610522565b61039561054f565b7f48168058523bbc2191776b55eab1ca02f70b119425a731034a490e12293a3c806040518060a00160405280878152602001868152602001858152602001848152602001838152506040516103ea9190610d00565b60405180910390a15050505050565b610401610522565b61025561061f565b610411610522565b61041961054f565b7f029c37b66e4d2c6abe2a25add57da4cfc5932cd888f0250a81ff73f29f9545cb6040518060e00160405280898152602001888152602001878152602001868152602001858152602001848152602001838152506040516102349190610b37565b610482610522565b61048a61054f565b7f45911e8fe24bebfb305453ee8ddc04cb9ff9e150f6ef3764692bf06297a3a28c6040518060a00160405280868152602001858152602001848152602001428152602001838152506040516102ed9190610d75565b6104e7610522565b6001600160a01b03811661051657604051631e4fbdf760e01b8152600060048201526024015b60405180910390fd5b61051f816105cf565b50565b6000546001600160a01b031633146102555760405163118cdaa760e01b815233600482015260240161050d565b600054600160a01b900460ff16156102555760405163d93c066560e01b815260040160405180910390fd5b610582610662565b6000805460ff60a01b191690557f5db9ee0a495bf2e6ff9c91a7834c1ba4fdd244a5e8aa4e537bd38aeae4b073aa335b6040516001600160a01b03909116815260200160405180910390a1565b600080546001600160a01b038381166001600160a01b0319831681178455604051919092169283917f8be0079c531659141344cd1fd0a4f28419497f9722a3daafe3b4186f6b6457e09190a35050565b61062761054f565b6000805460ff60a01b1916600160a01b1790557f62e78cea01bee320cd4e420270b5ea74000d11b0c9f74754ebdbfc544b05a2586105b23390565b600054600160a01b900460ff1661025557604051638dfc202b60e01b815260040160405180910390fd5b634e487b7160e01b600052604160045260246000fd5b600082601f8301126106b357600080fd5b813567ffffffffffffffff808211156106ce576106ce61068c565b604051601f8301601f19908116603f011681019082821181831017156106f6576106f661068c565b8160405283815286602085880101111561070f57600080fd5b836020870160208301376000602085830101528094505050505092915050565b600080600080600080600060e0888a03121561074a57600080fd5b873567ffffffffffffffff8082111561076257600080fd5b61076e8b838c016106a2565b985060208a013591508082111561078457600080fd5b6107908b838c016106a2565b975060408a01359150808211156107a657600080fd5b6107b28b838c016106a2565b965060608a0135955060808a01359150808211156107cf57600080fd5b6107db8b838c016106a2565b945060a08a01359150808211156107f157600080fd5b506107fe8a828b016106a2565b92505060c0880135905092959891949750929550565b6000806040838503121561082757600080fd5b823567ffffffffffffffff81111561083e57600080fd5b61084a858286016106a2565b95602094909401359450505050565b6000806000806080858703121561086f57600080fd5b843567ffffffffffffffff8082111561088757600080fd5b610893888389016106a2565b955060208701359150808211156108a957600080fd5b506108b6878288016106a2565b949794965050505060408301359260600135919050565b600080600080600080600060e0888a0312156108e857600080fd5b873567ffffffffffffffff8082111561090057600080fd5b61090c8b838c016106a2565b985060208a013591508082111561092257600080fd5b61092e8b838c016106a2565b975060408a013591508082111561094457600080fd5b6109508b838c016106a2565b965060608a013591508082111561096657600080fd5b506109738a828b016106a2565b979a969950949760808101359660a0820135965060c090910135945092505050565b600080600080600060a086880312156109ad57600080fd5b853567ffffffffffffffff808211156109c557600080fd5b6109d189838a016106a2565b965060208801359150808211156109e757600080fd5b6109f389838a016106a2565b955060408801359450606088013593506080880135915080821115610a1757600080fd5b50610a24888289016106a2565b9150509295509295909350565b60008060008060808587031215610a4757600080fd5b843567ffffffffffffffff80821115610a5f57600080fd5b610a6b888389016106a2565b95506020870135915080821115610a8157600080fd5b610a8d888389016106a2565b94506040870135915080821115610aa357600080fd5b50610ab0878288016106a2565b949793965093946060013593505050565b600060208284031215610ad357600080fd5b81356001600160a01b0381168114610aea57600080fd5b9392505050565b6000815180845260005b81811015610b1757602081850181015186830182015201610afb565b506000602082860101526020601f19601f83011685010191505092915050565b602081526000825160e06020840152610b54610100840182610af1565b90506020840151601f1980858403016040860152610b728383610af1565b92506040860151915080858403016060860152610b8f8383610af1565b92506060860151608086015260808601519150808584030160a0860152610bb68383610af1565b925060a08601519150808584030160c086015250610bd48282610af1565b91505060c084015160e08401528091505092915050565b606081526000610bfe6060830186610af1565b60208301949094525060400152919050565b60a081526000610c2360a0830188610af1565b8281036020840152610c358188610af1565b60408401969096525050606081019290925260809091015292915050565b6020815260008251610100806020850152610c72610120850183610af1565b91506020850151601f1980868503016040870152610c908483610af1565b93506040870151915080868503016060870152610cad8483610af1565b9350606087015191508086850301608087015250610ccb8382610af1565b925050608085015160a085015260a085015160c085015260c085015160e085015260e085015181850152508091505092915050565b602081526000825160a06020840152610d1c60c0840182610af1565b90506020840151601f1980858403016040860152610d3a8383610af1565b9250604086015160608601526060860151608086015260808601519150808584030160a086015250610d6c8282610af1565b95945050505050565b602081526000825160a06020840152610d9160c0840182610af1565b90506020840151601f1980858403016040860152610daf8383610af1565b9250604086015191508085840301606086015250610dcd8282610af1565b91505060608401516080840152608084015160a0840152809150509291505056fea2646970667358221220641501f7441e22840d87e546343d3a79241ce5d8e056d177ae70b442d5d9b28a64736f6c63430008140033",
  "linkReferences": {},
  "deployedLinkReferences": {}
}